{
	"MedTracker.sol": {
		"MedTracker": {
			"abi": [
				{
					"inputs": [
						{
							"internalType": "string",
							"name": "_name",
							"type": "string"
						},
						{
							"internalType": "string",
							"name": "_prescription",
							"type": "string"
						},
						{
							"internalType": "uint256",
							"name": "_amount",
							"type": "uint256"
						},
						{
							"internalType": "string",
							"name": "_prescribeBy",
							"type": "string"
						}
					],
					"name": "addPatient",
					"outputs": [],
					"stateMutability": "nonpayable",
					"type": "function"
				},
				{
					"inputs": [
						{
							"internalType": "uint256",
							"name": "",
							"type": "uint256"
						}
					],
					"name": "listofPatients",
					"outputs": [
						{
							"internalType": "string",
							"name": "Prescription",
							"type": "string"
						},
						{
							"internalType": "string",
							"name": "Name",
							"type": "string"
						},
						{
							"internalType": "uint256",
							"name": "Amount",
							"type": "uint256"
						},
						{
							"internalType": "string",
							"name": "PrescribedBy",
							"type": "string"
						}
					],
					"stateMutability": "view",
					"type": "function"
				},
				{
					"inputs": [
						{
							"internalType": "string",
							"name": "",
							"type": "string"
						}
					],
					"name": "nameToPatientList",
					"outputs": [
						{
							"internalType": "string",
							"name": "",
							"type": "string"
						}
					],
					"stateMutability": "view",
					"type": "function"
				},
				{
					"inputs": [],
					"name": "retrieve",
					"outputs": [
						{
							"internalType": "string",
							"name": "",
							"type": "string"
						}
					],
					"stateMutability": "view",
					"type": "function"
				},
				{
					"inputs": [
						{
							"internalType": "string",
							"name": "_prescription",
							"type": "string"
						}
					],
					"name": "store",
					"outputs": [],
					"stateMutability": "nonpayable",
					"type": "function"
				}
			],
			"devdoc": {
				"kind": "dev",
				"methods": {},
				"version": 1
			},
			"evm": {
				"assembly": "    /* \"MedTracker.sol\":58:847  contract MedTracker{... */\n  mstore(0x40, 0x80)\n  callvalue\n  dup1\n  iszero\n  tag_1\n  jumpi\n  0x00\n  dup1\n  revert\ntag_1:\n  pop\n  dataSize(sub_0)\n  dup1\n  dataOffset(sub_0)\n  0x00\n  codecopy\n  0x00\n  return\nstop\n\nsub_0: assembly {\n        /* \"MedTracker.sol\":58:847  contract MedTracker{... */\n      mstore(0x40, 0x80)\n      callvalue\n      dup1\n      iszero\n      tag_1\n      jumpi\n      0x00\n      dup1\n      revert\n    tag_1:\n      pop\n      jumpi(tag_2, lt(calldatasize, 0x04))\n      shr(0xe0, calldataload(0x00))\n      dup1\n      0x131a0680\n      eq\n      tag_3\n      jumpi\n      dup1\n      0x2123f489\n      eq\n      tag_4\n      jumpi\n      dup1\n      0x2e64cec1\n      eq\n      tag_5\n      jumpi\n      dup1\n      0x42074765\n      eq\n      tag_6\n      jumpi\n      dup1\n      0xc3b14791\n      eq\n      tag_7\n      jumpi\n    tag_2:\n      0x00\n      dup1\n      revert\n        /* \"MedTracker.sol\":365:474  function store(string memory _prescription) public virtual {... */\n    tag_3:\n      tag_8\n      0x04\n      dup1\n      calldatasize\n      sub\n      dup2\n      add\n      swap1\n      tag_9\n      swap2\n      swap1\n      tag_10\n      jump\t// in\n    tag_9:\n      tag_11\n      jump\t// in\n    tag_8:\n      stop\n        /* \"MedTracker.sol\":308:358  mapping(string => string) public nameToPatientList */\n    tag_4:\n      tag_12\n      0x04\n      dup1\n      calldatasize\n      sub\n      dup2\n      add\n      swap1\n      tag_13\n      swap2\n      swap1\n      tag_10\n      jump\t// in\n    tag_13:\n      tag_14\n      jump\t// in\n    tag_12:\n      mload(0x40)\n      tag_15\n      swap2\n      swap1\n      tag_16\n      jump\t// in\n    tag_15:\n      mload(0x40)\n      dup1\n      swap2\n      sub\n      swap1\n      return\n        /* \"MedTracker.sol\":480:577  function retrieve() public view returns (string memory) {... */\n    tag_5:\n      tag_17\n      tag_18\n      jump\t// in\n    tag_17:\n      mload(0x40)\n      tag_19\n      swap2\n      swap1\n      tag_16\n      jump\t// in\n    tag_19:\n      mload(0x40)\n      dup1\n      swap2\n      sub\n      swap1\n      return\n        /* \"MedTracker.sol\":582:845  function addPatient(string memory _name, string memory _prescription, uint256 _amount, string memory _prescribeBy) public {... */\n    tag_6:\n      tag_20\n      0x04\n      dup1\n      calldatasize\n      sub\n      dup2\n      add\n      swap1\n      tag_21\n      swap2\n      swap1\n      tag_22\n      jump\t// in\n    tag_21:\n      tag_23\n      jump\t// in\n    tag_20:\n      stop\n        /* \"MedTracker.sol\":270:301  Patient[] public listofPatients */\n    tag_7:\n      tag_24\n      0x04\n      dup1\n      calldatasize\n      sub\n      dup2\n      add\n      swap1\n      tag_25\n      swap2\n      swap1\n      tag_26\n      jump\t// in\n    tag_25:\n      tag_27\n      jump\t// in\n    tag_24:\n      mload(0x40)\n      tag_28\n      swap5\n      swap4\n      swap3\n      swap2\n      swap1\n      tag_29\n      jump\t// in\n    tag_28:\n      mload(0x40)\n      dup1\n      swap2\n      sub\n      swap1\n      return\n        /* \"MedTracker.sol\":365:474  function store(string memory _prescription) public virtual {... */\n    tag_11:\n        /* \"MedTracker.sol\":454:467  _prescription */\n      dup1\n        /* \"MedTracker.sol\":434:451  patientPrescribed */\n      0x00\n        /* \"MedTracker.sol\":434:467  patientPrescribed = _prescription */\n      swap1\n      dup2\n      tag_31\n      swap2\n      swap1\n      tag_32\n      jump\t// in\n    tag_31:\n      pop\n        /* \"MedTracker.sol\":365:474  function store(string memory _prescription) public virtual {... */\n      pop\n      jump\t// out\n        /* \"MedTracker.sol\":308:358  mapping(string => string) public nameToPatientList */\n    tag_14:\n      0x02\n      dup2\n      dup1\n      mload\n      0x20\n      dup2\n      add\n      dup3\n      add\n      dup1\n      mload\n      dup5\n      dup3\n      mstore\n      0x20\n      dup4\n      add\n      0x20\n      dup6\n      add\n      keccak256\n      dup2\n      dup4\n      mstore\n      dup1\n      swap6\n      pop\n      pop\n      pop\n      pop\n      pop\n      pop\n      0x00\n      swap2\n      pop\n      swap1\n      pop\n      dup1\n      sload\n      tag_33\n      swap1\n      tag_34\n      jump\t// in\n    tag_33:\n      dup1\n      0x1f\n      add\n      0x20\n      dup1\n      swap2\n      div\n      mul\n      0x20\n      add\n      mload(0x40)\n      swap1\n      dup2\n      add\n      0x40\n      mstore\n      dup1\n      swap3\n      swap2\n      swap1\n      dup2\n      dup2\n      mstore\n      0x20\n      add\n      dup3\n      dup1\n      sload\n      tag_35\n      swap1\n      tag_34\n      jump\t// in\n    tag_35:\n      dup1\n      iszero\n      tag_36\n      jumpi\n      dup1\n      0x1f\n      lt\n      tag_37\n      jumpi\n      0x0100\n      dup1\n      dup4\n      sload\n      div\n      mul\n      dup4\n      mstore\n      swap2\n      0x20\n      add\n      swap2\n      jump(tag_36)\n    tag_37:\n      dup3\n      add\n      swap2\n      swap1\n      0x00\n      mstore\n      keccak256(0x00, 0x20)\n      swap1\n    tag_38:\n      dup2\n      sload\n      dup2\n      mstore\n      swap1\n      0x01\n      add\n      swap1\n      0x20\n      add\n      dup1\n      dup4\n      gt\n      tag_38\n      jumpi\n      dup3\n      swap1\n      sub\n      0x1f\n      and\n      dup3\n      add\n      swap2\n    tag_36:\n      pop\n      pop\n      pop\n      pop\n      pop\n      dup2\n      jump\t// out\n        /* \"MedTracker.sol\":480:577  function retrieve() public view returns (string memory) {... */\n    tag_18:\n        /* \"MedTracker.sol\":521:534  string memory */\n      0x60\n        /* \"MedTracker.sol\":553:570  patientPrescribed */\n      0x00\n        /* \"MedTracker.sol\":546:570  return patientPrescribed */\n      dup1\n      sload\n      tag_40\n      swap1\n      tag_34\n      jump\t// in\n    tag_40:\n      dup1\n      0x1f\n      add\n      0x20\n      dup1\n      swap2\n      div\n      mul\n      0x20\n      add\n      mload(0x40)\n      swap1\n      dup2\n      add\n      0x40\n      mstore\n      dup1\n      swap3\n      swap2\n      swap1\n      dup2\n      dup2\n      mstore\n      0x20\n      add\n      dup3\n      dup1\n      sload\n      tag_41\n      swap1\n      tag_34\n      jump\t// in\n    tag_41:\n      dup1\n      iszero\n      tag_42\n      jumpi\n      dup1\n      0x1f\n      lt\n      tag_43\n      jumpi\n      0x0100\n      dup1\n      dup4\n      sload\n      div\n      mul\n      dup4\n      mstore\n      swap2\n      0x20\n      add\n      swap2\n      jump(tag_42)\n    tag_43:\n      dup3\n      add\n      swap2\n      swap1\n      0x00\n      mstore\n      keccak256(0x00, 0x20)\n      swap1\n    tag_44:\n      dup2\n      sload\n      dup2\n      mstore\n      swap1\n      0x01\n      add\n      swap1\n      0x20\n      add\n      dup1\n      dup4\n      gt\n      tag_44\n      jumpi\n      dup3\n      swap1\n      sub\n      0x1f\n      and\n      dup3\n      add\n      swap2\n    tag_42:\n      pop\n      pop\n      pop\n      pop\n      pop\n      swap1\n      pop\n        /* \"MedTracker.sol\":480:577  function retrieve() public view returns (string memory) {... */\n      swap1\n      jump\t// out\n        /* \"MedTracker.sol\":582:845  function addPatient(string memory _name, string memory _prescription, uint256 _amount, string memory _prescribeBy) public {... */\n    tag_23:\n        /* \"MedTracker.sol\":714:728  listofPatients */\n      0x01\n        /* \"MedTracker.sol\":734:786  Patient(_prescription, _name, _amount, _prescribeBy) */\n      mload(0x40)\n      dup1\n      0x80\n      add\n      0x40\n      mstore\n      dup1\n        /* \"MedTracker.sol\":742:755  _prescription */\n      dup6\n        /* \"MedTracker.sol\":734:786  Patient(_prescription, _name, _amount, _prescribeBy) */\n      dup2\n      mstore\n      0x20\n      add\n        /* \"MedTracker.sol\":757:762  _name */\n      dup7\n        /* \"MedTracker.sol\":734:786  Patient(_prescription, _name, _amount, _prescribeBy) */\n      dup2\n      mstore\n      0x20\n      add\n        /* \"MedTracker.sol\":764:771  _amount */\n      dup5\n        /* \"MedTracker.sol\":734:786  Patient(_prescription, _name, _amount, _prescribeBy) */\n      dup2\n      mstore\n      0x20\n      add\n        /* \"MedTracker.sol\":773:785  _prescribeBy */\n      dup4\n        /* \"MedTracker.sol\":734:786  Patient(_prescription, _name, _amount, _prescribeBy) */\n      dup2\n      mstore\n      pop\n        /* \"MedTracker.sol\":714:787  listofPatients.push(Patient(_prescription, _name, _amount, _prescribeBy)) */\n      swap1\n      dup1\n      0x01\n      dup2\n      sload\n      add\n      dup1\n      dup3\n      sstore\n      dup1\n      swap2\n      pop\n      pop\n      0x01\n      swap1\n      sub\n      swap1\n      0x00\n      mstore\n      keccak256(0x00, 0x20)\n      swap1\n      0x04\n      mul\n      add\n      0x00\n      swap1\n      swap2\n      swap1\n      swap2\n      swap1\n      swap2\n      pop\n      0x00\n      dup3\n      add\n      mload\n      dup2\n      0x00\n      add\n      swap1\n      dup2\n      tag_47\n      swap2\n      swap1\n      tag_32\n      jump\t// in\n    tag_47:\n      pop\n      0x20\n      dup3\n      add\n      mload\n      dup2\n      0x01\n      add\n      swap1\n      dup2\n      tag_48\n      swap2\n      swap1\n      tag_32\n      jump\t// in\n    tag_48:\n      pop\n      0x40\n      dup3\n      add\n      mload\n      dup2\n      0x02\n      add\n      sstore\n      0x60\n      dup3\n      add\n      mload\n      dup2\n      0x03\n      add\n      swap1\n      dup2\n      tag_49\n      swap2\n      swap1\n      tag_32\n      jump\t// in\n    tag_49:\n      pop\n      pop\n      pop\n        /* \"MedTracker.sol\":824:837  _prescription */\n      dup3\n        /* \"MedTracker.sol\":797:814  nameToPatientList */\n      0x02\n        /* \"MedTracker.sol\":815:820  _name */\n      dup6\n        /* \"MedTracker.sol\":797:821  nameToPatientList[_name] */\n      mload(0x40)\n      tag_50\n      swap2\n      swap1\n      tag_51\n      jump\t// in\n    tag_50:\n      swap1\n      dup2\n      mstore\n      0x20\n      add\n      mload(0x40)\n      dup1\n      swap2\n      sub\n      swap1\n      keccak256\n        /* \"MedTracker.sol\":797:837  nameToPatientList[_name] = _prescription */\n      swap1\n      dup2\n      tag_52\n      swap2\n      swap1\n      tag_32\n      jump\t// in\n    tag_52:\n      pop\n        /* \"MedTracker.sol\":582:845  function addPatient(string memory _name, string memory _prescription, uint256 _amount, string memory _prescribeBy) public {... */\n      pop\n      pop\n      pop\n      pop\n      jump\t// out\n        /* \"MedTracker.sol\":270:301  Patient[] public listofPatients */\n    tag_27:\n      0x01\n      dup2\n      dup2\n      sload\n      dup2\n      lt\n      tag_53\n      jumpi\n      0x00\n      dup1\n      revert\n    tag_53:\n      swap1\n      0x00\n      mstore\n      keccak256(0x00, 0x20)\n      swap1\n      0x04\n      mul\n      add\n      0x00\n      swap2\n      pop\n      swap1\n      pop\n      dup1\n      0x00\n      add\n      dup1\n      sload\n      tag_55\n      swap1\n      tag_34\n      jump\t// in\n    tag_55:\n      dup1\n      0x1f\n      add\n      0x20\n      dup1\n      swap2\n      div\n      mul\n      0x20\n      add\n      mload(0x40)\n      swap1\n      dup2\n      add\n      0x40\n      mstore\n      dup1\n      swap3\n      swap2\n      swap1\n      dup2\n      dup2\n      mstore\n      0x20\n      add\n      dup3\n      dup1\n      sload\n      tag_56\n      swap1\n      tag_34\n      jump\t// in\n    tag_56:\n      dup1\n      iszero\n      tag_57\n      jumpi\n      dup1\n      0x1f\n      lt\n      tag_58\n      jumpi\n      0x0100\n      dup1\n      dup4\n      sload\n      div\n      mul\n      dup4\n      mstore\n      swap2\n      0x20\n      add\n      swap2\n      jump(tag_57)\n    tag_58:\n      dup3\n      add\n      swap2\n      swap1\n      0x00\n      mstore\n      keccak256(0x00, 0x20)\n      swap1\n    tag_59:\n      dup2\n      sload\n      dup2\n      mstore\n      swap1\n      0x01\n      add\n      swap1\n      0x20\n      add\n      dup1\n      dup4\n      gt\n      tag_59\n      jumpi\n      dup3\n      swap1\n      sub\n      0x1f\n      and\n      dup3\n      add\n      swap2\n    tag_57:\n      pop\n      pop\n      pop\n      pop\n      pop\n      swap1\n      dup1\n      0x01\n      add\n      dup1\n      sload\n      tag_60\n      swap1\n      tag_34\n      jump\t// in\n    tag_60:\n      dup1\n      0x1f\n      add\n      0x20\n      dup1\n      swap2\n      div\n      mul\n      0x20\n      add\n      mload(0x40)\n      swap1\n      dup2\n      add\n      0x40\n      mstore\n      dup1\n      swap3\n      swap2\n      swap1\n      dup2\n      dup2\n      mstore\n      0x20\n      add\n      dup3\n      dup1\n      sload\n      tag_61\n      swap1\n      tag_34\n      jump\t// in\n    tag_61:\n      dup1\n      iszero\n      tag_62\n      jumpi\n      dup1\n      0x1f\n      lt\n      tag_63\n      jumpi\n      0x0100\n      dup1\n      dup4\n      sload\n      div\n      mul\n      dup4\n      mstore\n      swap2\n      0x20\n      add\n      swap2\n      jump(tag_62)\n    tag_63:\n      dup3\n      add\n      swap2\n      swap1\n      0x00\n      mstore\n      keccak256(0x00, 0x20)\n      swap1\n    tag_64:\n      dup2\n      sload\n      dup2\n      mstore\n      swap1\n      0x01\n      add\n      swap1\n      0x20\n      add\n      dup1\n      dup4\n      gt\n      tag_64\n      jumpi\n      dup3\n      swap1\n      sub\n      0x1f\n      and\n      dup3\n      add\n      swap2\n    tag_62:\n      pop\n      pop\n      pop\n      pop\n      pop\n      swap1\n      dup1\n      0x02\n      add\n      sload\n      swap1\n      dup1\n      0x03\n      add\n      dup1\n      sload\n      tag_65\n      swap1\n      tag_34\n      jump\t// in\n    tag_65:\n      dup1\n      0x1f\n      add\n      0x20\n      dup1\n      swap2\n      div\n      mul\n      0x20\n      add\n      mload(0x40)\n      swap1\n      dup2\n      add\n      0x40\n      mstore\n      dup1\n      swap3\n      swap2\n      swap1\n      dup2\n      dup2\n      mstore\n      0x20\n      add\n      dup3\n      dup1\n      sload\n      tag_66\n      swap1\n      tag_34\n      jump\t// in\n    tag_66:\n      dup1\n      iszero\n      tag_67\n      jumpi\n      dup1\n      0x1f\n      lt\n      tag_68\n      jumpi\n      0x0100\n      dup1\n      dup4\n      sload\n      div\n      mul\n      dup4\n      mstore\n      swap2\n      0x20\n      add\n      swap2\n      jump(tag_67)\n    tag_68:\n      dup3\n      add\n      swap2\n      swap1\n      0x00\n      mstore\n      keccak256(0x00, 0x20)\n      swap1\n    tag_69:\n      dup2\n      sload\n      dup2\n      mstore\n      swap1\n      0x01\n      add\n      swap1\n      0x20\n      add\n      dup1\n      dup4\n      gt\n      tag_69\n      jumpi\n      dup3\n      swap1\n      sub\n      0x1f\n      and\n      dup3\n      add\n      swap2\n    tag_67:\n      pop\n      pop\n      pop\n      pop\n      pop\n      swap1\n      pop\n      dup5\n      jump\t// out\n        /* \"#utility.yul\":7:82   */\n    tag_70:\n        /* \"#utility.yul\":40:46   */\n      0x00\n        /* \"#utility.yul\":73:75   */\n      0x40\n        /* \"#utility.yul\":67:76   */\n      mload\n        /* \"#utility.yul\":57:76   */\n      swap1\n      pop\n        /* \"#utility.yul\":7:82   */\n      swap1\n      jump\t// out\n        /* \"#utility.yul\":88:205   */\n    tag_71:\n        /* \"#utility.yul\":197:198   */\n      0x00\n        /* \"#utility.yul\":194:195   */\n      dup1\n        /* \"#utility.yul\":187:199   */\n      revert\n        /* \"#utility.yul\":211:328   */\n    tag_72:\n        /* \"#utility.yul\":320:321   */\n      0x00\n        /* \"#utility.yul\":317:318   */\n      dup1\n        /* \"#utility.yul\":310:322   */\n      revert\n        /* \"#utility.yul\":334:451   */\n    tag_73:\n        /* \"#utility.yul\":443:444   */\n      0x00\n        /* \"#utility.yul\":440:441   */\n      dup1\n        /* \"#utility.yul\":433:445   */\n      revert\n        /* \"#utility.yul\":457:574   */\n    tag_74:\n        /* \"#utility.yul\":566:567   */\n      0x00\n        /* \"#utility.yul\":563:564   */\n      dup1\n        /* \"#utility.yul\":556:568   */\n      revert\n        /* \"#utility.yul\":580:682   */\n    tag_75:\n        /* \"#utility.yul\":621:627   */\n      0x00\n        /* \"#utility.yul\":672:674   */\n      0x1f\n        /* \"#utility.yul\":668:675   */\n      not\n        /* \"#utility.yul\":663:665   */\n      0x1f\n        /* \"#utility.yul\":656:661   */\n      dup4\n        /* \"#utility.yul\":652:666   */\n      add\n        /* \"#utility.yul\":648:676   */\n      and\n        /* \"#utility.yul\":638:676   */\n      swap1\n      pop\n        /* \"#utility.yul\":580:682   */\n      swap2\n      swap1\n      pop\n      jump\t// out\n        /* \"#utility.yul\":688:868   */\n    tag_76:\n        /* \"#utility.yul\":736:813   */\n      0x4e487b7100000000000000000000000000000000000000000000000000000000\n        /* \"#utility.yul\":733:734   */\n      0x00\n        /* \"#utility.yul\":726:814   */\n      mstore\n        /* \"#utility.yul\":833:837   */\n      0x41\n        /* \"#utility.yul\":830:831   */\n      0x04\n        /* \"#utility.yul\":823:838   */\n      mstore\n        /* \"#utility.yul\":857:861   */\n      0x24\n        /* \"#utility.yul\":854:855   */\n      0x00\n        /* \"#utility.yul\":847:862   */\n      revert\n        /* \"#utility.yul\":874:1155   */\n    tag_77:\n        /* \"#utility.yul\":957:984   */\n      tag_118\n        /* \"#utility.yul\":979:983   */\n      dup3\n        /* \"#utility.yul\":957:984   */\n      tag_75\n      jump\t// in\n    tag_118:\n        /* \"#utility.yul\":949:955   */\n      dup2\n        /* \"#utility.yul\":945:985   */\n      add\n        /* \"#utility.yul\":1087:1093   */\n      dup2\n        /* \"#utility.yul\":1075:1085   */\n      dup2\n        /* \"#utility.yul\":1072:1094   */\n      lt\n        /* \"#utility.yul\":1051:1069   */\n      0xffffffffffffffff\n        /* \"#utility.yul\":1039:1049   */\n      dup3\n        /* \"#utility.yul\":1036:1070   */\n      gt\n        /* \"#utility.yul\":1033:1095   */\n      or\n        /* \"#utility.yul\":1030:1118   */\n      iszero\n      tag_119\n      jumpi\n        /* \"#utility.yul\":1098:1116   */\n      tag_120\n      tag_76\n      jump\t// in\n    tag_120:\n        /* \"#utility.yul\":1030:1118   */\n    tag_119:\n        /* \"#utility.yul\":1138:1148   */\n      dup1\n        /* \"#utility.yul\":1134:1136   */\n      0x40\n        /* \"#utility.yul\":1127:1149   */\n      mstore\n        /* \"#utility.yul\":917:1155   */\n      pop\n        /* \"#utility.yul\":874:1155   */\n      pop\n      pop\n      jump\t// out\n        /* \"#utility.yul\":1161:1290   */\n    tag_78:\n        /* \"#utility.yul\":1195:1201   */\n      0x00\n        /* \"#utility.yul\":1222:1242   */\n      tag_122\n      tag_70\n      jump\t// in\n    tag_122:\n        /* \"#utility.yul\":1212:1242   */\n      swap1\n      pop\n        /* \"#utility.yul\":1251:1284   */\n      tag_123\n        /* \"#utility.yul\":1279:1283   */\n      dup3\n        /* \"#utility.yul\":1271:1277   */\n      dup3\n        /* \"#utility.yul\":1251:1284   */\n      tag_77\n      jump\t// in\n    tag_123:\n        /* \"#utility.yul\":1161:1290   */\n      swap2\n      swap1\n      pop\n      jump\t// out\n        /* \"#utility.yul\":1296:1604   */\n    tag_79:\n        /* \"#utility.yul\":1358:1362   */\n      0x00\n        /* \"#utility.yul\":1448:1466   */\n      0xffffffffffffffff\n        /* \"#utility.yul\":1440:1446   */\n      dup3\n        /* \"#utility.yul\":1437:1467   */\n      gt\n        /* \"#utility.yul\":1434:1490   */\n      iszero\n      tag_125\n      jumpi\n        /* \"#utility.yul\":1470:1488   */\n      tag_126\n      tag_76\n      jump\t// in\n    tag_126:\n        /* \"#utility.yul\":1434:1490   */\n    tag_125:\n        /* \"#utility.yul\":1508:1537   */\n      tag_127\n        /* \"#utility.yul\":1530:1536   */\n      dup3\n        /* \"#utility.yul\":1508:1537   */\n      tag_75\n      jump\t// in\n    tag_127:\n        /* \"#utility.yul\":1500:1537   */\n      swap1\n      pop\n        /* \"#utility.yul\":1592:1596   */\n      0x20\n        /* \"#utility.yul\":1586:1590   */\n      dup2\n        /* \"#utility.yul\":1582:1597   */\n      add\n        /* \"#utility.yul\":1574:1597   */\n      swap1\n      pop\n        /* \"#utility.yul\":1296:1604   */\n      swap2\n      swap1\n      pop\n      jump\t// out\n        /* \"#utility.yul\":1610:1756   */\n    tag_80:\n        /* \"#utility.yul\":1707:1713   */\n      dup3\n        /* \"#utility.yul\":1702:1705   */\n      dup2\n        /* \"#utility.yul\":1697:1700   */\n      dup4\n        /* \"#utility.yul\":1684:1714   */\n      calldatacopy\n        /* \"#utility.yul\":1748:1749   */\n      0x00\n        /* \"#utility.yul\":1739:1745   */\n      dup4\n        /* \"#utility.yul\":1734:1737   */\n      dup4\n        /* \"#utility.yul\":1730:1746   */\n      add\n        /* \"#utility.yul\":1723:1750   */\n      mstore\n        /* \"#utility.yul\":1610:1756   */\n      pop\n      pop\n      pop\n      jump\t// out\n        /* \"#utility.yul\":1762:2187   */\n    tag_81:\n        /* \"#utility.yul\":1840:1845   */\n      0x00\n        /* \"#utility.yul\":1865:1931   */\n      tag_130\n        /* \"#utility.yul\":1881:1930   */\n      tag_131\n        /* \"#utility.yul\":1923:1929   */\n      dup5\n        /* \"#utility.yul\":1881:1930   */\n      tag_79\n      jump\t// in\n    tag_131:\n        /* \"#utility.yul\":1865:1931   */\n      tag_78\n      jump\t// in\n    tag_130:\n        /* \"#utility.yul\":1856:1931   */\n      swap1\n      pop\n        /* \"#utility.yul\":1954:1960   */\n      dup3\n        /* \"#utility.yul\":1947:1952   */\n      dup2\n        /* \"#utility.yul\":1940:1961   */\n      mstore\n        /* \"#utility.yul\":1992:1996   */\n      0x20\n        /* \"#utility.yul\":1985:1990   */\n      dup2\n        /* \"#utility.yul\":1981:1997   */\n      add\n        /* \"#utility.yul\":2030:2033   */\n      dup5\n        /* \"#utility.yul\":2021:2027   */\n      dup5\n        /* \"#utility.yul\":2016:2019   */\n      dup5\n        /* \"#utility.yul\":2012:2028   */\n      add\n        /* \"#utility.yul\":2009:2034   */\n      gt\n        /* \"#utility.yul\":2006:2118   */\n      iszero\n      tag_132\n      jumpi\n        /* \"#utility.yul\":2037:2116   */\n      tag_133\n      tag_74\n      jump\t// in\n    tag_133:\n        /* \"#utility.yul\":2006:2118   */\n    tag_132:\n        /* \"#utility.yul\":2127:2181   */\n      tag_134\n        /* \"#utility.yul\":2174:2180   */\n      dup5\n        /* \"#utility.yul\":2169:2172   */\n      dup3\n        /* \"#utility.yul\":2164:2167   */\n      dup6\n        /* \"#utility.yul\":2127:2181   */\n      tag_80\n      jump\t// in\n    tag_134:\n        /* \"#utility.yul\":1846:2187   */\n      pop\n        /* \"#utility.yul\":1762:2187   */\n      swap4\n      swap3\n      pop\n      pop\n      pop\n      jump\t// out\n        /* \"#utility.yul\":2207:2547   */\n    tag_82:\n        /* \"#utility.yul\":2263:2268   */\n      0x00\n        /* \"#utility.yul\":2312:2315   */\n      dup3\n        /* \"#utility.yul\":2305:2309   */\n      0x1f\n        /* \"#utility.yul\":2297:2303   */\n      dup4\n        /* \"#utility.yul\":2293:2310   */\n      add\n        /* \"#utility.yul\":2289:2316   */\n      slt\n        /* \"#utility.yul\":2279:2401   */\n      tag_136\n      jumpi\n        /* \"#utility.yul\":2320:2399   */\n      tag_137\n      tag_73\n      jump\t// in\n    tag_137:\n        /* \"#utility.yul\":2279:2401   */\n    tag_136:\n        /* \"#utility.yul\":2437:2443   */\n      dup2\n        /* \"#utility.yul\":2424:2444   */\n      calldataload\n        /* \"#utility.yul\":2462:2541   */\n      tag_138\n        /* \"#utility.yul\":2537:2540   */\n      dup5\n        /* \"#utility.yul\":2529:2535   */\n      dup3\n        /* \"#utility.yul\":2522:2526   */\n      0x20\n        /* \"#utility.yul\":2514:2520   */\n      dup7\n        /* \"#utility.yul\":2510:2527   */\n      add\n        /* \"#utility.yul\":2462:2541   */\n      tag_81\n      jump\t// in\n    tag_138:\n        /* \"#utility.yul\":2453:2541   */\n      swap2\n      pop\n        /* \"#utility.yul\":2269:2547   */\n      pop\n        /* \"#utility.yul\":2207:2547   */\n      swap3\n      swap2\n      pop\n      pop\n      jump\t// out\n        /* \"#utility.yul\":2553:3062   */\n    tag_10:\n        /* \"#utility.yul\":2622:2628   */\n      0x00\n        /* \"#utility.yul\":2671:2673   */\n      0x20\n        /* \"#utility.yul\":2659:2668   */\n      dup3\n        /* \"#utility.yul\":2650:2657   */\n      dup5\n        /* \"#utility.yul\":2646:2669   */\n      sub\n        /* \"#utility.yul\":2642:2674   */\n      slt\n        /* \"#utility.yul\":2639:2758   */\n      iszero\n      tag_140\n      jumpi\n        /* \"#utility.yul\":2677:2756   */\n      tag_141\n      tag_71\n      jump\t// in\n    tag_141:\n        /* \"#utility.yul\":2639:2758   */\n    tag_140:\n        /* \"#utility.yul\":2825:2826   */\n      0x00\n        /* \"#utility.yul\":2814:2823   */\n      dup3\n        /* \"#utility.yul\":2810:2827   */\n      add\n        /* \"#utility.yul\":2797:2828   */\n      calldataload\n        /* \"#utility.yul\":2855:2873   */\n      0xffffffffffffffff\n        /* \"#utility.yul\":2847:2853   */\n      dup2\n        /* \"#utility.yul\":2844:2874   */\n      gt\n        /* \"#utility.yul\":2841:2958   */\n      iszero\n      tag_142\n      jumpi\n        /* \"#utility.yul\":2877:2956   */\n      tag_143\n      tag_72\n      jump\t// in\n    tag_143:\n        /* \"#utility.yul\":2841:2958   */\n    tag_142:\n        /* \"#utility.yul\":2982:3045   */\n      tag_144\n        /* \"#utility.yul\":3037:3044   */\n      dup5\n        /* \"#utility.yul\":3028:3034   */\n      dup3\n        /* \"#utility.yul\":3017:3026   */\n      dup6\n        /* \"#utility.yul\":3013:3035   */\n      add\n        /* \"#utility.yul\":2982:3045   */\n      tag_82\n      jump\t// in\n    tag_144:\n        /* \"#utility.yul\":2972:3045   */\n      swap2\n      pop\n        /* \"#utility.yul\":2768:3055   */\n      pop\n        /* \"#utility.yul\":2553:3062   */\n      swap3\n      swap2\n      pop\n      pop\n      jump\t// out\n        /* \"#utility.yul\":3068:3167   */\n    tag_83:\n        /* \"#utility.yul\":3120:3126   */\n      0x00\n        /* \"#utility.yul\":3154:3159   */\n      dup2\n        /* \"#utility.yul\":3148:3160   */\n      mload\n        /* \"#utility.yul\":3138:3160   */\n      swap1\n      pop\n        /* \"#utility.yul\":3068:3167   */\n      swap2\n      swap1\n      pop\n      jump\t// out\n        /* \"#utility.yul\":3173:3342   */\n    tag_84:\n        /* \"#utility.yul\":3257:3268   */\n      0x00\n        /* \"#utility.yul\":3291:3297   */\n      dup3\n        /* \"#utility.yul\":3286:3289   */\n      dup3\n        /* \"#utility.yul\":3279:3298   */\n      mstore\n        /* \"#utility.yul\":3331:3335   */\n      0x20\n        /* \"#utility.yul\":3326:3329   */\n      dup3\n        /* \"#utility.yul\":3322:3336   */\n      add\n        /* \"#utility.yul\":3307:3336   */\n      swap1\n      pop\n        /* \"#utility.yul\":3173:3342   */\n      swap3\n      swap2\n      pop\n      pop\n      jump\t// out\n        /* \"#utility.yul\":3348:3594   */\n    tag_85:\n        /* \"#utility.yul\":3429:3430   */\n      0x00\n        /* \"#utility.yul\":3439:3552   */\n    tag_148:\n        /* \"#utility.yul\":3453:3459   */\n      dup4\n        /* \"#utility.yul\":3450:3451   */\n      dup2\n        /* \"#utility.yul\":3447:3460   */\n      lt\n        /* \"#utility.yul\":3439:3552   */\n      iszero\n      tag_150\n      jumpi\n        /* \"#utility.yul\":3538:3539   */\n      dup1\n        /* \"#utility.yul\":3533:3536   */\n      dup3\n        /* \"#utility.yul\":3529:3540   */\n      add\n        /* \"#utility.yul\":3523:3541   */\n      mload\n        /* \"#utility.yul\":3519:3520   */\n      dup2\n        /* \"#utility.yul\":3514:3517   */\n      dup5\n        /* \"#utility.yul\":3510:3521   */\n      add\n        /* \"#utility.yul\":3503:3542   */\n      mstore\n        /* \"#utility.yul\":3475:3477   */\n      0x20\n        /* \"#utility.yul\":3472:3473   */\n      dup2\n        /* \"#utility.yul\":3468:3478   */\n      add\n        /* \"#utility.yul\":3463:3478   */\n      swap1\n      pop\n        /* \"#utility.yul\":3439:3552   */\n      jump(tag_148)\n    tag_150:\n        /* \"#utility.yul\":3586:3587   */\n      0x00\n        /* \"#utility.yul\":3577:3583   */\n      dup5\n        /* \"#utility.yul\":3572:3575   */\n      dup5\n        /* \"#utility.yul\":3568:3584   */\n      add\n        /* \"#utility.yul\":3561:3588   */\n      mstore\n        /* \"#utility.yul\":3410:3594   */\n      pop\n        /* \"#utility.yul\":3348:3594   */\n      pop\n      pop\n      pop\n      jump\t// out\n        /* \"#utility.yul\":3600:3977   */\n    tag_86:\n        /* \"#utility.yul\":3688:3691   */\n      0x00\n        /* \"#utility.yul\":3716:3755   */\n      tag_152\n        /* \"#utility.yul\":3749:3754   */\n      dup3\n        /* \"#utility.yul\":3716:3755   */\n      tag_83\n      jump\t// in\n    tag_152:\n        /* \"#utility.yul\":3771:3842   */\n      tag_153\n        /* \"#utility.yul\":3835:3841   */\n      dup2\n        /* \"#utility.yul\":3830:3833   */\n      dup6\n        /* \"#utility.yul\":3771:3842   */\n      tag_84\n      jump\t// in\n    tag_153:\n        /* \"#utility.yul\":3764:3842   */\n      swap4\n      pop\n        /* \"#utility.yul\":3851:3916   */\n      tag_154\n        /* \"#utility.yul\":3909:3915   */\n      dup2\n        /* \"#utility.yul\":3904:3907   */\n      dup6\n        /* \"#utility.yul\":3897:3901   */\n      0x20\n        /* \"#utility.yul\":3890:3895   */\n      dup7\n        /* \"#utility.yul\":3886:3902   */\n      add\n        /* \"#utility.yul\":3851:3916   */\n      tag_85\n      jump\t// in\n    tag_154:\n        /* \"#utility.yul\":3941:3970   */\n      tag_155\n        /* \"#utility.yul\":3963:3969   */\n      dup2\n        /* \"#utility.yul\":3941:3970   */\n      tag_75\n      jump\t// in\n    tag_155:\n        /* \"#utility.yul\":3936:3939   */\n      dup5\n        /* \"#utility.yul\":3932:3971   */\n      add\n        /* \"#utility.yul\":3925:3971   */\n      swap2\n      pop\n        /* \"#utility.yul\":3692:3977   */\n      pop\n        /* \"#utility.yul\":3600:3977   */\n      swap3\n      swap2\n      pop\n      pop\n      jump\t// out\n        /* \"#utility.yul\":3983:4296   */\n    tag_16:\n        /* \"#utility.yul\":4096:4100   */\n      0x00\n        /* \"#utility.yul\":4134:4136   */\n      0x20\n        /* \"#utility.yul\":4123:4132   */\n      dup3\n        /* \"#utility.yul\":4119:4137   */\n      add\n        /* \"#utility.yul\":4111:4137   */\n      swap1\n      pop\n        /* \"#utility.yul\":4183:4192   */\n      dup2\n        /* \"#utility.yul\":4177:4181   */\n      dup2\n        /* \"#utility.yul\":4173:4193   */\n      sub\n        /* \"#utility.yul\":4169:4170   */\n      0x00\n        /* \"#utility.yul\":4158:4167   */\n      dup4\n        /* \"#utility.yul\":4154:4171   */\n      add\n        /* \"#utility.yul\":4147:4194   */\n      mstore\n        /* \"#utility.yul\":4211:4289   */\n      tag_157\n        /* \"#utility.yul\":4284:4288   */\n      dup2\n        /* \"#utility.yul\":4275:4281   */\n      dup5\n        /* \"#utility.yul\":4211:4289   */\n      tag_86\n      jump\t// in\n    tag_157:\n        /* \"#utility.yul\":4203:4289   */\n      swap1\n      pop\n        /* \"#utility.yul\":3983:4296   */\n      swap3\n      swap2\n      pop\n      pop\n      jump\t// out\n        /* \"#utility.yul\":4302:4379   */\n    tag_87:\n        /* \"#utility.yul\":4339:4346   */\n      0x00\n        /* \"#utility.yul\":4368:4373   */\n      dup2\n        /* \"#utility.yul\":4357:4373   */\n      swap1\n      pop\n        /* \"#utility.yul\":4302:4379   */\n      swap2\n      swap1\n      pop\n      jump\t// out\n        /* \"#utility.yul\":4385:4507   */\n    tag_88:\n        /* \"#utility.yul\":4458:4482   */\n      tag_160\n        /* \"#utility.yul\":4476:4481   */\n      dup2\n        /* \"#utility.yul\":4458:4482   */\n      tag_87\n      jump\t// in\n    tag_160:\n        /* \"#utility.yul\":4451:4456   */\n      dup2\n        /* \"#utility.yul\":4448:4483   */\n      eq\n        /* \"#utility.yul\":4438:4501   */\n      tag_161\n      jumpi\n        /* \"#utility.yul\":4497:4498   */\n      0x00\n        /* \"#utility.yul\":4494:4495   */\n      dup1\n        /* \"#utility.yul\":4487:4499   */\n      revert\n        /* \"#utility.yul\":4438:4501   */\n    tag_161:\n        /* \"#utility.yul\":4385:4507   */\n      pop\n      jump\t// out\n        /* \"#utility.yul\":4513:4652   */\n    tag_89:\n        /* \"#utility.yul\":4559:4564   */\n      0x00\n        /* \"#utility.yul\":4597:4603   */\n      dup2\n        /* \"#utility.yul\":4584:4604   */\n      calldataload\n        /* \"#utility.yul\":4575:4604   */\n      swap1\n      pop\n        /* \"#utility.yul\":4613:4646   */\n      tag_163\n        /* \"#utility.yul\":4640:4645   */\n      dup2\n        /* \"#utility.yul\":4613:4646   */\n      tag_88\n      jump\t// in\n    tag_163:\n        /* \"#utility.yul\":4513:4652   */\n      swap3\n      swap2\n      pop\n      pop\n      jump\t// out\n        /* \"#utility.yul\":4658:5963   */\n    tag_22:\n        /* \"#utility.yul\":4774:4780   */\n      0x00\n        /* \"#utility.yul\":4782:4788   */\n      dup1\n        /* \"#utility.yul\":4790:4796   */\n      0x00\n        /* \"#utility.yul\":4798:4804   */\n      dup1\n        /* \"#utility.yul\":4847:4850   */\n      0x80\n        /* \"#utility.yul\":4835:4844   */\n      dup6\n        /* \"#utility.yul\":4826:4833   */\n      dup8\n        /* \"#utility.yul\":4822:4845   */\n      sub\n        /* \"#utility.yul\":4818:4851   */\n      slt\n        /* \"#utility.yul\":4815:4935   */\n      iszero\n      tag_165\n      jumpi\n        /* \"#utility.yul\":4854:4933   */\n      tag_166\n      tag_71\n      jump\t// in\n    tag_166:\n        /* \"#utility.yul\":4815:4935   */\n    tag_165:\n        /* \"#utility.yul\":5002:5003   */\n      0x00\n        /* \"#utility.yul\":4991:5000   */\n      dup6\n        /* \"#utility.yul\":4987:5004   */\n      add\n        /* \"#utility.yul\":4974:5005   */\n      calldataload\n        /* \"#utility.yul\":5032:5050   */\n      0xffffffffffffffff\n        /* \"#utility.yul\":5024:5030   */\n      dup2\n        /* \"#utility.yul\":5021:5051   */\n      gt\n        /* \"#utility.yul\":5018:5135   */\n      iszero\n      tag_167\n      jumpi\n        /* \"#utility.yul\":5054:5133   */\n      tag_168\n      tag_72\n      jump\t// in\n    tag_168:\n        /* \"#utility.yul\":5018:5135   */\n    tag_167:\n        /* \"#utility.yul\":5159:5222   */\n      tag_169\n        /* \"#utility.yul\":5214:5221   */\n      dup8\n        /* \"#utility.yul\":5205:5211   */\n      dup3\n        /* \"#utility.yul\":5194:5203   */\n      dup9\n        /* \"#utility.yul\":5190:5212   */\n      add\n        /* \"#utility.yul\":5159:5222   */\n      tag_82\n      jump\t// in\n    tag_169:\n        /* \"#utility.yul\":5149:5222   */\n      swap5\n      pop\n        /* \"#utility.yul\":4945:5232   */\n      pop\n        /* \"#utility.yul\":5299:5301   */\n      0x20\n        /* \"#utility.yul\":5288:5297   */\n      dup6\n        /* \"#utility.yul\":5284:5302   */\n      add\n        /* \"#utility.yul\":5271:5303   */\n      calldataload\n        /* \"#utility.yul\":5330:5348   */\n      0xffffffffffffffff\n        /* \"#utility.yul\":5322:5328   */\n      dup2\n        /* \"#utility.yul\":5319:5349   */\n      gt\n        /* \"#utility.yul\":5316:5433   */\n      iszero\n      tag_170\n      jumpi\n        /* \"#utility.yul\":5352:5431   */\n      tag_171\n      tag_72\n      jump\t// in\n    tag_171:\n        /* \"#utility.yul\":5316:5433   */\n    tag_170:\n        /* \"#utility.yul\":5457:5520   */\n      tag_172\n        /* \"#utility.yul\":5512:5519   */\n      dup8\n        /* \"#utility.yul\":5503:5509   */\n      dup3\n        /* \"#utility.yul\":5492:5501   */\n      dup9\n        /* \"#utility.yul\":5488:5510   */\n      add\n        /* \"#utility.yul\":5457:5520   */\n      tag_82\n      jump\t// in\n    tag_172:\n        /* \"#utility.yul\":5447:5520   */\n      swap4\n      pop\n        /* \"#utility.yul\":5242:5530   */\n      pop\n        /* \"#utility.yul\":5569:5571   */\n      0x40\n        /* \"#utility.yul\":5595:5648   */\n      tag_173\n        /* \"#utility.yul\":5640:5647   */\n      dup8\n        /* \"#utility.yul\":5631:5637   */\n      dup3\n        /* \"#utility.yul\":5620:5629   */\n      dup9\n        /* \"#utility.yul\":5616:5638   */\n      add\n        /* \"#utility.yul\":5595:5648   */\n      tag_89\n      jump\t// in\n    tag_173:\n        /* \"#utility.yul\":5585:5648   */\n      swap3\n      pop\n        /* \"#utility.yul\":5540:5658   */\n      pop\n        /* \"#utility.yul\":5725:5727   */\n      0x60\n        /* \"#utility.yul\":5714:5723   */\n      dup6\n        /* \"#utility.yul\":5710:5728   */\n      add\n        /* \"#utility.yul\":5697:5729   */\n      calldataload\n        /* \"#utility.yul\":5756:5774   */\n      0xffffffffffffffff\n        /* \"#utility.yul\":5748:5754   */\n      dup2\n        /* \"#utility.yul\":5745:5775   */\n      gt\n        /* \"#utility.yul\":5742:5859   */\n      iszero\n      tag_174\n      jumpi\n        /* \"#utility.yul\":5778:5857   */\n      tag_175\n      tag_72\n      jump\t// in\n    tag_175:\n        /* \"#utility.yul\":5742:5859   */\n    tag_174:\n        /* \"#utility.yul\":5883:5946   */\n      tag_176\n        /* \"#utility.yul\":5938:5945   */\n      dup8\n        /* \"#utility.yul\":5929:5935   */\n      dup3\n        /* \"#utility.yul\":5918:5927   */\n      dup9\n        /* \"#utility.yul\":5914:5936   */\n      add\n        /* \"#utility.yul\":5883:5946   */\n      tag_82\n      jump\t// in\n    tag_176:\n        /* \"#utility.yul\":5873:5946   */\n      swap2\n      pop\n        /* \"#utility.yul\":5668:5956   */\n      pop\n        /* \"#utility.yul\":4658:5963   */\n      swap3\n      swap6\n      swap2\n      swap5\n      pop\n      swap3\n      pop\n      jump\t// out\n        /* \"#utility.yul\":5969:6298   */\n    tag_26:\n        /* \"#utility.yul\":6028:6034   */\n      0x00\n        /* \"#utility.yul\":6077:6079   */\n      0x20\n        /* \"#utility.yul\":6065:6074   */\n      dup3\n        /* \"#utility.yul\":6056:6063   */\n      dup5\n        /* \"#utility.yul\":6052:6075   */\n      sub\n        /* \"#utility.yul\":6048:6080   */\n      slt\n        /* \"#utility.yul\":6045:6164   */\n      iszero\n      tag_178\n      jumpi\n        /* \"#utility.yul\":6083:6162   */\n      tag_179\n      tag_71\n      jump\t// in\n    tag_179:\n        /* \"#utility.yul\":6045:6164   */\n    tag_178:\n        /* \"#utility.yul\":6203:6204   */\n      0x00\n        /* \"#utility.yul\":6228:6281   */\n      tag_180\n        /* \"#utility.yul\":6273:6280   */\n      dup5\n        /* \"#utility.yul\":6264:6270   */\n      dup3\n        /* \"#utility.yul\":6253:6262   */\n      dup6\n        /* \"#utility.yul\":6249:6271   */\n      add\n        /* \"#utility.yul\":6228:6281   */\n      tag_89\n      jump\t// in\n    tag_180:\n        /* \"#utility.yul\":6218:6281   */\n      swap2\n      pop\n        /* \"#utility.yul\":6174:6291   */\n      pop\n        /* \"#utility.yul\":5969:6298   */\n      swap3\n      swap2\n      pop\n      pop\n      jump\t// out\n        /* \"#utility.yul\":6304:6422   */\n    tag_90:\n        /* \"#utility.yul\":6391:6415   */\n      tag_182\n        /* \"#utility.yul\":6409:6414   */\n      dup2\n        /* \"#utility.yul\":6391:6415   */\n      tag_87\n      jump\t// in\n    tag_182:\n        /* \"#utility.yul\":6386:6389   */\n      dup3\n        /* \"#utility.yul\":6379:6416   */\n      mstore\n        /* \"#utility.yul\":6304:6422   */\n      pop\n      pop\n      jump\t// out\n        /* \"#utility.yul\":6428:7254   */\n    tag_29:\n        /* \"#utility.yul\":6665:6669   */\n      0x00\n        /* \"#utility.yul\":6703:6706   */\n      0x80\n        /* \"#utility.yul\":6692:6701   */\n      dup3\n        /* \"#utility.yul\":6688:6707   */\n      add\n        /* \"#utility.yul\":6680:6707   */\n      swap1\n      pop\n        /* \"#utility.yul\":6753:6762   */\n      dup2\n        /* \"#utility.yul\":6747:6751   */\n      dup2\n        /* \"#utility.yul\":6743:6763   */\n      sub\n        /* \"#utility.yul\":6739:6740   */\n      0x00\n        /* \"#utility.yul\":6728:6737   */\n      dup4\n        /* \"#utility.yul\":6724:6741   */\n      add\n        /* \"#utility.yul\":6717:6764   */\n      mstore\n        /* \"#utility.yul\":6781:6859   */\n      tag_184\n        /* \"#utility.yul\":6854:6858   */\n      dup2\n        /* \"#utility.yul\":6845:6851   */\n      dup8\n        /* \"#utility.yul\":6781:6859   */\n      tag_86\n      jump\t// in\n    tag_184:\n        /* \"#utility.yul\":6773:6859   */\n      swap1\n      pop\n        /* \"#utility.yul\":6906:6915   */\n      dup2\n        /* \"#utility.yul\":6900:6904   */\n      dup2\n        /* \"#utility.yul\":6896:6916   */\n      sub\n        /* \"#utility.yul\":6891:6893   */\n      0x20\n        /* \"#utility.yul\":6880:6889   */\n      dup4\n        /* \"#utility.yul\":6876:6894   */\n      add\n        /* \"#utility.yul\":6869:6917   */\n      mstore\n        /* \"#utility.yul\":6934:7012   */\n      tag_185\n        /* \"#utility.yul\":7007:7011   */\n      dup2\n        /* \"#utility.yul\":6998:7004   */\n      dup7\n        /* \"#utility.yul\":6934:7012   */\n      tag_86\n      jump\t// in\n    tag_185:\n        /* \"#utility.yul\":6926:7012   */\n      swap1\n      pop\n        /* \"#utility.yul\":7022:7094   */\n      tag_186\n        /* \"#utility.yul\":7090:7092   */\n      0x40\n        /* \"#utility.yul\":7079:7088   */\n      dup4\n        /* \"#utility.yul\":7075:7093   */\n      add\n        /* \"#utility.yul\":7066:7072   */\n      dup6\n        /* \"#utility.yul\":7022:7094   */\n      tag_90\n      jump\t// in\n    tag_186:\n        /* \"#utility.yul\":7141:7150   */\n      dup2\n        /* \"#utility.yul\":7135:7139   */\n      dup2\n        /* \"#utility.yul\":7131:7151   */\n      sub\n        /* \"#utility.yul\":7126:7128   */\n      0x60\n        /* \"#utility.yul\":7115:7124   */\n      dup4\n        /* \"#utility.yul\":7111:7129   */\n      add\n        /* \"#utility.yul\":7104:7152   */\n      mstore\n        /* \"#utility.yul\":7169:7247   */\n      tag_187\n        /* \"#utility.yul\":7242:7246   */\n      dup2\n        /* \"#utility.yul\":7233:7239   */\n      dup5\n        /* \"#utility.yul\":7169:7247   */\n      tag_86\n      jump\t// in\n    tag_187:\n        /* \"#utility.yul\":7161:7247   */\n      swap1\n      pop\n        /* \"#utility.yul\":6428:7254   */\n      swap6\n      swap5\n      pop\n      pop\n      pop\n      pop\n      pop\n      jump\t// out\n        /* \"#utility.yul\":7260:7440   */\n    tag_91:\n        /* \"#utility.yul\":7308:7385   */\n      0x4e487b7100000000000000000000000000000000000000000000000000000000\n        /* \"#utility.yul\":7305:7306   */\n      0x00\n        /* \"#utility.yul\":7298:7386   */\n      mstore\n        /* \"#utility.yul\":7405:7409   */\n      0x22\n        /* \"#utility.yul\":7402:7403   */\n      0x04\n        /* \"#utility.yul\":7395:7410   */\n      mstore\n        /* \"#utility.yul\":7429:7433   */\n      0x24\n        /* \"#utility.yul\":7426:7427   */\n      0x00\n        /* \"#utility.yul\":7419:7434   */\n      revert\n        /* \"#utility.yul\":7446:7766   */\n    tag_34:\n        /* \"#utility.yul\":7490:7496   */\n      0x00\n        /* \"#utility.yul\":7527:7528   */\n      0x02\n        /* \"#utility.yul\":7521:7525   */\n      dup3\n        /* \"#utility.yul\":7517:7529   */\n      div\n        /* \"#utility.yul\":7507:7529   */\n      swap1\n      pop\n        /* \"#utility.yul\":7574:7575   */\n      0x01\n        /* \"#utility.yul\":7568:7572   */\n      dup3\n        /* \"#utility.yul\":7564:7576   */\n      and\n        /* \"#utility.yul\":7595:7613   */\n      dup1\n        /* \"#utility.yul\":7585:7666   */\n      tag_190\n      jumpi\n        /* \"#utility.yul\":7651:7655   */\n      0x7f\n        /* \"#utility.yul\":7643:7649   */\n      dup3\n        /* \"#utility.yul\":7639:7656   */\n      and\n        /* \"#utility.yul\":7629:7656   */\n      swap2\n      pop\n        /* \"#utility.yul\":7585:7666   */\n    tag_190:\n        /* \"#utility.yul\":7713:7715   */\n      0x20\n        /* \"#utility.yul\":7705:7711   */\n      dup3\n        /* \"#utility.yul\":7702:7716   */\n      lt\n        /* \"#utility.yul\":7682:7700   */\n      dup2\n        /* \"#utility.yul\":7679:7717   */\n      sub\n        /* \"#utility.yul\":7676:7760   */\n      tag_191\n      jumpi\n        /* \"#utility.yul\":7732:7750   */\n      tag_192\n      tag_91\n      jump\t// in\n    tag_192:\n        /* \"#utility.yul\":7676:7760   */\n    tag_191:\n        /* \"#utility.yul\":7497:7766   */\n      pop\n        /* \"#utility.yul\":7446:7766   */\n      swap2\n      swap1\n      pop\n      jump\t// out\n        /* \"#utility.yul\":7772:7913   */\n    tag_92:\n        /* \"#utility.yul\":7821:7825   */\n      0x00\n        /* \"#utility.yul\":7844:7847   */\n      dup2\n        /* \"#utility.yul\":7836:7847   */\n      swap1\n      pop\n        /* \"#utility.yul\":7867:7870   */\n      dup2\n        /* \"#utility.yul\":7864:7865   */\n      0x00\n        /* \"#utility.yul\":7857:7871   */\n      mstore\n        /* \"#utility.yul\":7901:7905   */\n      0x20\n        /* \"#utility.yul\":7898:7899   */\n      0x00\n        /* \"#utility.yul\":7888:7906   */\n      keccak256\n        /* \"#utility.yul\":7880:7906   */\n      swap1\n      pop\n        /* \"#utility.yul\":7772:7913   */\n      swap2\n      swap1\n      pop\n      jump\t// out\n        /* \"#utility.yul\":7919:8012   */\n    tag_93:\n        /* \"#utility.yul\":7956:7962   */\n      0x00\n        /* \"#utility.yul\":8003:8005   */\n      0x20\n        /* \"#utility.yul\":7998:8000   */\n      0x1f\n        /* \"#utility.yul\":7991:7996   */\n      dup4\n        /* \"#utility.yul\":7987:8001   */\n      add\n        /* \"#utility.yul\":7983:8006   */\n      div\n        /* \"#utility.yul\":7973:8006   */\n      swap1\n      pop\n        /* \"#utility.yul\":7919:8012   */\n      swap2\n      swap1\n      pop\n      jump\t// out\n        /* \"#utility.yul\":8018:8125   */\n    tag_94:\n        /* \"#utility.yul\":8062:8070   */\n      0x00\n        /* \"#utility.yul\":8112:8117   */\n      dup3\n        /* \"#utility.yul\":8106:8110   */\n      dup3\n        /* \"#utility.yul\":8102:8118   */\n      shl\n        /* \"#utility.yul\":8081:8118   */\n      swap1\n      pop\n        /* \"#utility.yul\":8018:8125   */\n      swap3\n      swap2\n      pop\n      pop\n      jump\t// out\n        /* \"#utility.yul\":8131:8524   */\n    tag_95:\n        /* \"#utility.yul\":8200:8206   */\n      0x00\n        /* \"#utility.yul\":8250:8251   */\n      0x08\n        /* \"#utility.yul\":8238:8248   */\n      dup4\n        /* \"#utility.yul\":8234:8252   */\n      mul\n        /* \"#utility.yul\":8273:8370   */\n      tag_197\n        /* \"#utility.yul\":8303:8369   */\n      0xffffffffffffffffffffffffffffffffffffffffffffffffffffffffffffffff\n        /* \"#utility.yul\":8292:8301   */\n      dup3\n        /* \"#utility.yul\":8273:8370   */\n      tag_94\n      jump\t// in\n    tag_197:\n        /* \"#utility.yul\":8391:8430   */\n      tag_198\n        /* \"#utility.yul\":8421:8429   */\n      dup7\n        /* \"#utility.yul\":8410:8419   */\n      dup4\n        /* \"#utility.yul\":8391:8430   */\n      tag_94\n      jump\t// in\n    tag_198:\n        /* \"#utility.yul\":8379:8430   */\n      swap6\n      pop\n        /* \"#utility.yul\":8463:8467   */\n      dup1\n        /* \"#utility.yul\":8459:8468   */\n      not\n        /* \"#utility.yul\":8452:8457   */\n      dup5\n        /* \"#utility.yul\":8448:8469   */\n      and\n        /* \"#utility.yul\":8439:8469   */\n      swap4\n      pop\n        /* \"#utility.yul\":8512:8516   */\n      dup1\n        /* \"#utility.yul\":8502:8510   */\n      dup7\n        /* \"#utility.yul\":8498:8517   */\n      and\n        /* \"#utility.yul\":8491:8496   */\n      dup5\n        /* \"#utility.yul\":8488:8518   */\n      or\n        /* \"#utility.yul\":8478:8518   */\n      swap3\n      pop\n        /* \"#utility.yul\":8207:8524   */\n      pop\n      pop\n        /* \"#utility.yul\":8131:8524   */\n      swap4\n      swap3\n      pop\n      pop\n      pop\n      jump\t// out\n        /* \"#utility.yul\":8530:8590   */\n    tag_96:\n        /* \"#utility.yul\":8558:8561   */\n      0x00\n        /* \"#utility.yul\":8579:8584   */\n      dup2\n        /* \"#utility.yul\":8572:8584   */\n      swap1\n      pop\n        /* \"#utility.yul\":8530:8590   */\n      swap2\n      swap1\n      pop\n      jump\t// out\n        /* \"#utility.yul\":8596:8738   */\n    tag_97:\n        /* \"#utility.yul\":8646:8655   */\n      0x00\n        /* \"#utility.yul\":8679:8732   */\n      tag_201\n        /* \"#utility.yul\":8697:8731   */\n      tag_202\n        /* \"#utility.yul\":8706:8730   */\n      tag_203\n        /* \"#utility.yul\":8724:8729   */\n      dup5\n        /* \"#utility.yul\":8706:8730   */\n      tag_87\n      jump\t// in\n    tag_203:\n        /* \"#utility.yul\":8697:8731   */\n      tag_96\n      jump\t// in\n    tag_202:\n        /* \"#utility.yul\":8679:8732   */\n      tag_87\n      jump\t// in\n    tag_201:\n        /* \"#utility.yul\":8666:8732   */\n      swap1\n      pop\n        /* \"#utility.yul\":8596:8738   */\n      swap2\n      swap1\n      pop\n      jump\t// out\n        /* \"#utility.yul\":8744:8819   */\n    tag_98:\n        /* \"#utility.yul\":8787:8790   */\n      0x00\n        /* \"#utility.yul\":8808:8813   */\n      dup2\n        /* \"#utility.yul\":8801:8813   */\n      swap1\n      pop\n        /* \"#utility.yul\":8744:8819   */\n      swap2\n      swap1\n      pop\n      jump\t// out\n        /* \"#utility.yul\":8825:9094   */\n    tag_99:\n        /* \"#utility.yul\":8935:8974   */\n      tag_206\n        /* \"#utility.yul\":8966:8973   */\n      dup4\n        /* \"#utility.yul\":8935:8974   */\n      tag_97\n      jump\t// in\n    tag_206:\n        /* \"#utility.yul\":8996:9087   */\n      tag_207\n        /* \"#utility.yul\":9045:9086   */\n      tag_208\n        /* \"#utility.yul\":9069:9085   */\n      dup3\n        /* \"#utility.yul\":9045:9086   */\n      tag_98\n      jump\t// in\n    tag_208:\n        /* \"#utility.yul\":9037:9043   */\n      dup5\n        /* \"#utility.yul\":9030:9034   */\n      dup5\n        /* \"#utility.yul\":9024:9035   */\n      sload\n        /* \"#utility.yul\":8996:9087   */\n      tag_95\n      jump\t// in\n    tag_207:\n        /* \"#utility.yul\":8990:8994   */\n      dup3\n        /* \"#utility.yul\":8983:9088   */\n      sstore\n        /* \"#utility.yul\":8901:9094   */\n      pop\n        /* \"#utility.yul\":8825:9094   */\n      pop\n      pop\n      pop\n      jump\t// out\n        /* \"#utility.yul\":9100:9173   */\n    tag_100:\n        /* \"#utility.yul\":9145:9148   */\n      0x00\n        /* \"#utility.yul\":9100:9173   */\n      swap1\n      jump\t// out\n        /* \"#utility.yul\":9179:9368   */\n    tag_101:\n        /* \"#utility.yul\":9256:9288   */\n      tag_211\n      tag_100\n      jump\t// in\n    tag_211:\n        /* \"#utility.yul\":9297:9362   */\n      tag_212\n        /* \"#utility.yul\":9355:9361   */\n      dup2\n        /* \"#utility.yul\":9347:9353   */\n      dup5\n        /* \"#utility.yul\":9341:9345   */\n      dup5\n        /* \"#utility.yul\":9297:9362   */\n      tag_99\n      jump\t// in\n    tag_212:\n        /* \"#utility.yul\":9232:9368   */\n      pop\n        /* \"#utility.yul\":9179:9368   */\n      pop\n      pop\n      jump\t// out\n        /* \"#utility.yul\":9374:9560   */\n    tag_102:\n        /* \"#utility.yul\":9434:9554   */\n    tag_214:\n        /* \"#utility.yul\":9451:9454   */\n      dup2\n        /* \"#utility.yul\":9444:9449   */\n      dup2\n        /* \"#utility.yul\":9441:9455   */\n      lt\n        /* \"#utility.yul\":9434:9554   */\n      iszero\n      tag_216\n      jumpi\n        /* \"#utility.yul\":9505:9544   */\n      tag_217\n        /* \"#utility.yul\":9542:9543   */\n      0x00\n        /* \"#utility.yul\":9535:9540   */\n      dup3\n        /* \"#utility.yul\":9505:9544   */\n      tag_101\n      jump\t// in\n    tag_217:\n        /* \"#utility.yul\":9478:9479   */\n      0x01\n        /* \"#utility.yul\":9471:9476   */\n      dup2\n        /* \"#utility.yul\":9467:9480   */\n      add\n        /* \"#utility.yul\":9458:9480   */\n      swap1\n      pop\n        /* \"#utility.yul\":9434:9554   */\n      jump(tag_214)\n    tag_216:\n        /* \"#utility.yul\":9374:9560   */\n      pop\n      pop\n      jump\t// out\n        /* \"#utility.yul\":9566:10109   */\n    tag_103:\n        /* \"#utility.yul\":9667:9669   */\n      0x1f\n        /* \"#utility.yul\":9662:9665   */\n      dup3\n        /* \"#utility.yul\":9659:9670   */\n      gt\n        /* \"#utility.yul\":9656:10102   */\n      iszero\n      tag_219\n      jumpi\n        /* \"#utility.yul\":9701:9739   */\n      tag_220\n        /* \"#utility.yul\":9733:9738   */\n      dup2\n        /* \"#utility.yul\":9701:9739   */\n      tag_92\n      jump\t// in\n    tag_220:\n        /* \"#utility.yul\":9785:9814   */\n      tag_221\n        /* \"#utility.yul\":9803:9813   */\n      dup5\n        /* \"#utility.yul\":9785:9814   */\n      tag_93\n      jump\t// in\n    tag_221:\n        /* \"#utility.yul\":9775:9783   */\n      dup2\n        /* \"#utility.yul\":9771:9815   */\n      add\n        /* \"#utility.yul\":9968:9970   */\n      0x20\n        /* \"#utility.yul\":9956:9966   */\n      dup6\n        /* \"#utility.yul\":9953:9971   */\n      lt\n        /* \"#utility.yul\":9950:9999   */\n      iszero\n      tag_222\n      jumpi\n        /* \"#utility.yul\":9989:9997   */\n      dup2\n        /* \"#utility.yul\":9974:9997   */\n      swap1\n      pop\n        /* \"#utility.yul\":9950:9999   */\n    tag_222:\n        /* \"#utility.yul\":10012:10092   */\n      tag_223\n        /* \"#utility.yul\":10068:10090   */\n      tag_224\n        /* \"#utility.yul\":10086:10089   */\n      dup6\n        /* \"#utility.yul\":10068:10090   */\n      tag_93\n      jump\t// in\n    tag_224:\n        /* \"#utility.yul\":10058:10066   */\n      dup4\n        /* \"#utility.yul\":10054:10091   */\n      add\n        /* \"#utility.yul\":10041:10052   */\n      dup3\n        /* \"#utility.yul\":10012:10092   */\n      tag_102\n      jump\t// in\n    tag_223:\n        /* \"#utility.yul\":9671:10102   */\n      pop\n      pop\n        /* \"#utility.yul\":9656:10102   */\n    tag_219:\n        /* \"#utility.yul\":9566:10109   */\n      pop\n      pop\n      pop\n      jump\t// out\n        /* \"#utility.yul\":10115:10232   */\n    tag_104:\n        /* \"#utility.yul\":10169:10177   */\n      0x00\n        /* \"#utility.yul\":10219:10224   */\n      dup3\n        /* \"#utility.yul\":10213:10217   */\n      dup3\n        /* \"#utility.yul\":10209:10225   */\n      shr\n        /* \"#utility.yul\":10188:10225   */\n      swap1\n      pop\n        /* \"#utility.yul\":10115:10232   */\n      swap3\n      swap2\n      pop\n      pop\n      jump\t// out\n        /* \"#utility.yul\":10238:10407   */\n    tag_105:\n        /* \"#utility.yul\":10282:10288   */\n      0x00\n        /* \"#utility.yul\":10315:10366   */\n      tag_227\n        /* \"#utility.yul\":10363:10364   */\n      0x00\n        /* \"#utility.yul\":10359:10365   */\n      not\n        /* \"#utility.yul\":10351:10356   */\n      dup5\n        /* \"#utility.yul\":10348:10349   */\n      0x08\n        /* \"#utility.yul\":10344:10357   */\n      mul\n        /* \"#utility.yul\":10315:10366   */\n      tag_104\n      jump\t// in\n    tag_227:\n        /* \"#utility.yul\":10311:10367   */\n      not\n        /* \"#utility.yul\":10396:10400   */\n      dup1\n        /* \"#utility.yul\":10390:10394   */\n      dup4\n        /* \"#utility.yul\":10386:10401   */\n      and\n        /* \"#utility.yul\":10376:10401   */\n      swap2\n      pop\n        /* \"#utility.yul\":10289:10407   */\n      pop\n        /* \"#utility.yul\":10238:10407   */\n      swap3\n      swap2\n      pop\n      pop\n      jump\t// out\n        /* \"#utility.yul\":10412:10707   */\n    tag_106:\n        /* \"#utility.yul\":10488:10492   */\n      0x00\n        /* \"#utility.yul\":10634:10663   */\n      tag_229\n        /* \"#utility.yul\":10659:10662   */\n      dup4\n        /* \"#utility.yul\":10653:10657   */\n      dup4\n        /* \"#utility.yul\":10634:10663   */\n      tag_105\n      jump\t// in\n    tag_229:\n        /* \"#utility.yul\":10626:10663   */\n      swap2\n      pop\n        /* \"#utility.yul\":10696:10699   */\n      dup3\n        /* \"#utility.yul\":10693:10694   */\n      0x02\n        /* \"#utility.yul\":10689:10700   */\n      mul\n        /* \"#utility.yul\":10683:10687   */\n      dup3\n        /* \"#utility.yul\":10680:10701   */\n      or\n        /* \"#utility.yul\":10672:10701   */\n      swap1\n      pop\n        /* \"#utility.yul\":10412:10707   */\n      swap3\n      swap2\n      pop\n      pop\n      jump\t// out\n        /* \"#utility.yul\":10712:12107   */\n    tag_32:\n        /* \"#utility.yul\":10829:10866   */\n      tag_231\n        /* \"#utility.yul\":10862:10865   */\n      dup3\n        /* \"#utility.yul\":10829:10866   */\n      tag_83\n      jump\t// in\n    tag_231:\n        /* \"#utility.yul\":10931:10949   */\n      0xffffffffffffffff\n        /* \"#utility.yul\":10923:10929   */\n      dup2\n        /* \"#utility.yul\":10920:10950   */\n      gt\n        /* \"#utility.yul\":10917:10973   */\n      iszero\n      tag_232\n      jumpi\n        /* \"#utility.yul\":10953:10971   */\n      tag_233\n      tag_76\n      jump\t// in\n    tag_233:\n        /* \"#utility.yul\":10917:10973   */\n    tag_232:\n        /* \"#utility.yul\":10997:11035   */\n      tag_234\n        /* \"#utility.yul\":11029:11033   */\n      dup3\n        /* \"#utility.yul\":11023:11034   */\n      sload\n        /* \"#utility.yul\":10997:11035   */\n      tag_34\n      jump\t// in\n    tag_234:\n        /* \"#utility.yul\":11082:11149   */\n      tag_235\n        /* \"#utility.yul\":11142:11148   */\n      dup3\n        /* \"#utility.yul\":11134:11140   */\n      dup3\n        /* \"#utility.yul\":11128:11132   */\n      dup6\n        /* \"#utility.yul\":11082:11149   */\n      tag_103\n      jump\t// in\n    tag_235:\n        /* \"#utility.yul\":11176:11177   */\n      0x00\n        /* \"#utility.yul\":11200:11204   */\n      0x20\n        /* \"#utility.yul\":11187:11204   */\n      swap1\n      pop\n        /* \"#utility.yul\":11232:11234   */\n      0x1f\n        /* \"#utility.yul\":11224:11230   */\n      dup4\n        /* \"#utility.yul\":11221:11235   */\n      gt\n        /* \"#utility.yul\":11249:11250   */\n      0x01\n        /* \"#utility.yul\":11244:11862   */\n      dup2\n      eq\n      tag_237\n      jumpi\n        /* \"#utility.yul\":11906:11907   */\n      0x00\n        /* \"#utility.yul\":11923:11929   */\n      dup5\n        /* \"#utility.yul\":11920:11997   */\n      iszero\n      tag_238\n      jumpi\n        /* \"#utility.yul\":11972:11981   */\n      dup3\n        /* \"#utility.yul\":11967:11970   */\n      dup8\n        /* \"#utility.yul\":11963:11982   */\n      add\n        /* \"#utility.yul\":11957:11983   */\n      mload\n        /* \"#utility.yul\":11948:11983   */\n      swap1\n      pop\n        /* \"#utility.yul\":11920:11997   */\n    tag_238:\n        /* \"#utility.yul\":12023:12090   */\n      tag_239\n        /* \"#utility.yul\":12083:12089   */\n      dup6\n        /* \"#utility.yul\":12076:12081   */\n      dup3\n        /* \"#utility.yul\":12023:12090   */\n      tag_106\n      jump\t// in\n    tag_239:\n        /* \"#utility.yul\":12017:12021   */\n      dup7\n        /* \"#utility.yul\":12010:12091   */\n      sstore\n        /* \"#utility.yul\":11879:12101   */\n      pop\n        /* \"#utility.yul\":11214:12101   */\n      jump(tag_236)\n        /* \"#utility.yul\":11244:11862   */\n    tag_237:\n        /* \"#utility.yul\":11296:11300   */\n      0x1f\n        /* \"#utility.yul\":11292:11301   */\n      not\n        /* \"#utility.yul\":11284:11290   */\n      dup5\n        /* \"#utility.yul\":11280:11302   */\n      and\n        /* \"#utility.yul\":11330:11367   */\n      tag_240\n        /* \"#utility.yul\":11362:11366   */\n      dup7\n        /* \"#utility.yul\":11330:11367   */\n      tag_92\n      jump\t// in\n    tag_240:\n        /* \"#utility.yul\":11389:11390   */\n      0x00\n        /* \"#utility.yul\":11403:11611   */\n    tag_241:\n        /* \"#utility.yul\":11417:11424   */\n      dup3\n        /* \"#utility.yul\":11414:11415   */\n      dup2\n        /* \"#utility.yul\":11411:11425   */\n      lt\n        /* \"#utility.yul\":11403:11611   */\n      iszero\n      tag_243\n      jumpi\n        /* \"#utility.yul\":11496:11505   */\n      dup5\n        /* \"#utility.yul\":11491:11494   */\n      dup10\n        /* \"#utility.yul\":11487:11506   */\n      add\n        /* \"#utility.yul\":11481:11507   */\n      mload\n        /* \"#utility.yul\":11473:11479   */\n      dup3\n        /* \"#utility.yul\":11466:11508   */\n      sstore\n        /* \"#utility.yul\":11547:11548   */\n      0x01\n        /* \"#utility.yul\":11539:11545   */\n      dup3\n        /* \"#utility.yul\":11535:11549   */\n      add\n        /* \"#utility.yul\":11525:11549   */\n      swap2\n      pop\n        /* \"#utility.yul\":11594:11596   */\n      0x20\n        /* \"#utility.yul\":11583:11592   */\n      dup6\n        /* \"#utility.yul\":11579:11597   */\n      add\n        /* \"#utility.yul\":11566:11597   */\n      swap5\n      pop\n        /* \"#utility.yul\":11440:11444   */\n      0x20\n        /* \"#utility.yul\":11437:11438   */\n      dup2\n        /* \"#utility.yul\":11433:11445   */\n      add\n        /* \"#utility.yul\":11428:11445   */\n      swap1\n      pop\n        /* \"#utility.yul\":11403:11611   */\n      jump(tag_241)\n    tag_243:\n        /* \"#utility.yul\":11639:11645   */\n      dup7\n        /* \"#utility.yul\":11630:11637   */\n      dup4\n        /* \"#utility.yul\":11627:11646   */\n      lt\n        /* \"#utility.yul\":11624:11803   */\n      iszero\n      tag_244\n      jumpi\n        /* \"#utility.yul\":11697:11706   */\n      dup5\n        /* \"#utility.yul\":11692:11695   */\n      dup10\n        /* \"#utility.yul\":11688:11707   */\n      add\n        /* \"#utility.yul\":11682:11708   */\n      mload\n        /* \"#utility.yul\":11740:11788   */\n      tag_245\n        /* \"#utility.yul\":11782:11786   */\n      0x1f\n        /* \"#utility.yul\":11774:11780   */\n      dup10\n        /* \"#utility.yul\":11770:11787   */\n      and\n        /* \"#utility.yul\":11759:11768   */\n      dup3\n        /* \"#utility.yul\":11740:11788   */\n      tag_105\n      jump\t// in\n    tag_245:\n        /* \"#utility.yul\":11732:11738   */\n      dup4\n        /* \"#utility.yul\":11725:11789   */\n      sstore\n        /* \"#utility.yul\":11647:11803   */\n      pop\n        /* \"#utility.yul\":11624:11803   */\n    tag_244:\n        /* \"#utility.yul\":11849:11850   */\n      0x01\n        /* \"#utility.yul\":11845:11846   */\n      0x02\n        /* \"#utility.yul\":11837:11843   */\n      dup9\n        /* \"#utility.yul\":11833:11847   */\n      mul\n        /* \"#utility.yul\":11829:11851   */\n      add\n        /* \"#utility.yul\":11823:11827   */\n      dup9\n        /* \"#utility.yul\":11816:11852   */\n      sstore\n        /* \"#utility.yul\":11251:11862   */\n      pop\n      pop\n      pop\n        /* \"#utility.yul\":11214:12101   */\n    tag_236:\n      pop\n        /* \"#utility.yul\":10804:12107   */\n      pop\n      pop\n      pop\n        /* \"#utility.yul\":10712:12107   */\n      pop\n      pop\n      jump\t// out\n        /* \"#utility.yul\":12113:12261   */\n    tag_107:\n        /* \"#utility.yul\":12215:12226   */\n      0x00\n        /* \"#utility.yul\":12252:12255   */\n      dup2\n        /* \"#utility.yul\":12237:12255   */\n      swap1\n      pop\n        /* \"#utility.yul\":12113:12261   */\n      swap3\n      swap2\n      pop\n      pop\n      jump\t// out\n        /* \"#utility.yul\":12267:12657   */\n    tag_108:\n        /* \"#utility.yul\":12373:12376   */\n      0x00\n        /* \"#utility.yul\":12401:12440   */\n      tag_248\n        /* \"#utility.yul\":12434:12439   */\n      dup3\n        /* \"#utility.yul\":12401:12440   */\n      tag_83\n      jump\t// in\n    tag_248:\n        /* \"#utility.yul\":12456:12545   */\n      tag_249\n        /* \"#utility.yul\":12538:12544   */\n      dup2\n        /* \"#utility.yul\":12533:12536   */\n      dup6\n        /* \"#utility.yul\":12456:12545   */\n      tag_107\n      jump\t// in\n    tag_249:\n        /* \"#utility.yul\":12449:12545   */\n      swap4\n      pop\n        /* \"#utility.yul\":12554:12619   */\n      tag_250\n        /* \"#utility.yul\":12612:12618   */\n      dup2\n        /* \"#utility.yul\":12607:12610   */\n      dup6\n        /* \"#utility.yul\":12600:12604   */\n      0x20\n        /* \"#utility.yul\":12593:12598   */\n      dup7\n        /* \"#utility.yul\":12589:12605   */\n      add\n        /* \"#utility.yul\":12554:12619   */\n      tag_85\n      jump\t// in\n    tag_250:\n        /* \"#utility.yul\":12644:12650   */\n      dup1\n        /* \"#utility.yul\":12639:12642   */\n      dup5\n        /* \"#utility.yul\":12635:12651   */\n      add\n        /* \"#utility.yul\":12628:12651   */\n      swap2\n      pop\n        /* \"#utility.yul\":12377:12657   */\n      pop\n        /* \"#utility.yul\":12267:12657   */\n      swap3\n      swap2\n      pop\n      pop\n      jump\t// out\n        /* \"#utility.yul\":12663:12938   */\n    tag_51:\n        /* \"#utility.yul\":12795:12798   */\n      0x00\n        /* \"#utility.yul\":12817:12912   */\n      tag_252\n        /* \"#utility.yul\":12908:12911   */\n      dup3\n        /* \"#utility.yul\":12899:12905   */\n      dup5\n        /* \"#utility.yul\":12817:12912   */\n      tag_108\n      jump\t// in\n    tag_252:\n        /* \"#utility.yul\":12810:12912   */\n      swap2\n      pop\n        /* \"#utility.yul\":12929:12932   */\n      dup2\n        /* \"#utility.yul\":12922:12932   */\n      swap1\n      pop\n        /* \"#utility.yul\":12663:12938   */\n      swap3\n      swap2\n      pop\n      pop\n      jump\t// out\n\n    auxdata: 0xa2646970667358221220a1a730ecbe1c067acb90ade5225b00bd3f4be4ee796e8745ae056f213795ef3d64736f6c63430008130033\n}\n",
				"bytecode": {
					"linkReferences": {},
					"object": "608060405234801561001057600080fd5b50610c46806100206000396000f3fe608060405234801561001057600080fd5b50600436106100575760003560e01c8063131a06801461005c5780632123f489146100785780632e64cec1146100a857806342074765146100c6578063c3b14791146100e2575b600080fd5b6100766004803603810190610071919061066e565b610115565b005b610092600480360381019061008d919061066e565b610128565b60405161009f9190610736565b60405180910390f35b6100b06101de565b6040516100bd9190610736565b60405180910390f35b6100e060048036038101906100db919061078e565b610270565b005b6100fc60048036038101906100f79190610849565b61033c565b60405161010c9493929190610885565b60405180910390f35b80600090816101249190610aeb565b5050565b600281805160208101820180518482526020830160208501208183528095505050505050600091509050805461015d9061090e565b80601f01602080910402602001604051908101604052809291908181526020018280546101899061090e565b80156101d65780601f106101ab576101008083540402835291602001916101d6565b820191906000526020600020905b8154815290600101906020018083116101b957829003601f168201915b505050505081565b6060600080546101ed9061090e565b80601f01602080910402602001604051908101604052809291908181526020018280546102199061090e565b80156102665780601f1061023b57610100808354040283529160200191610266565b820191906000526020600020905b81548152906001019060200180831161024957829003601f168201915b5050505050905090565b6001604051806080016040528085815260200186815260200184815260200183815250908060018154018082558091505060019003906000526020600020906004020160009091909190915060008201518160000190816102d19190610aeb565b5060208201518160010190816102e79190610aeb565b506040820151816002015560608201518160030190816103079190610aeb565b5050508260028560405161031b9190610bf9565b908152602001604051809103902090816103359190610aeb565b5050505050565b6001818154811061034c57600080fd5b906000526020600020906004020160009150905080600001805461036f9061090e565b80601f016020809104026020016040519081016040528092919081815260200182805461039b9061090e565b80156103e85780601f106103bd576101008083540402835291602001916103e8565b820191906000526020600020905b8154815290600101906020018083116103cb57829003601f168201915b5050505050908060010180546103fd9061090e565b80601f01602080910402602001604051908101604052809291908181526020018280546104299061090e565b80156104765780601f1061044b57610100808354040283529160200191610476565b820191906000526020600020905b81548152906001019060200180831161045957829003601f168201915b5050505050908060020154908060030180546104919061090e565b80601f01602080910402602001604051908101604052809291908181526020018280546104bd9061090e565b801561050a5780601f106104df5761010080835404028352916020019161050a565b820191906000526020600020905b8154815290600101906020018083116104ed57829003601f168201915b5050505050905084565b6000604051905090565b600080fd5b600080fd5b600080fd5b600080fd5b6000601f19601f8301169050919050565b7f4e487b7100000000000000000000000000000000000000000000000000000000600052604160045260246000fd5b61057b82610532565b810181811067ffffffffffffffff8211171561059a57610599610543565b5b80604052505050565b60006105ad610514565b90506105b98282610572565b919050565b600067ffffffffffffffff8211156105d9576105d8610543565b5b6105e282610532565b9050602081019050919050565b82818337600083830152505050565b600061061161060c846105be565b6105a3565b90508281526020810184848401111561062d5761062c61052d565b5b6106388482856105ef565b509392505050565b600082601f83011261065557610654610528565b5b81356106658482602086016105fe565b91505092915050565b6000602082840312156106845761068361051e565b5b600082013567ffffffffffffffff8111156106a2576106a1610523565b5b6106ae84828501610640565b91505092915050565b600081519050919050565b600082825260208201905092915050565b60005b838110156106f15780820151818401526020810190506106d6565b60008484015250505050565b6000610708826106b7565b61071281856106c2565b93506107228185602086016106d3565b61072b81610532565b840191505092915050565b6000602082019050818103600083015261075081846106fd565b905092915050565b6000819050919050565b61076b81610758565b811461077657600080fd5b50565b60008135905061078881610762565b92915050565b600080600080608085870312156107a8576107a761051e565b5b600085013567ffffffffffffffff8111156107c6576107c5610523565b5b6107d287828801610640565b945050602085013567ffffffffffffffff8111156107f3576107f2610523565b5b6107ff87828801610640565b935050604061081087828801610779565b925050606085013567ffffffffffffffff81111561083157610830610523565b5b61083d87828801610640565b91505092959194509250565b60006020828403121561085f5761085e61051e565b5b600061086d84828501610779565b91505092915050565b61087f81610758565b82525050565b6000608082019050818103600083015261089f81876106fd565b905081810360208301526108b381866106fd565b90506108c26040830185610876565b81810360608301526108d481846106fd565b905095945050505050565b7f4e487b7100000000000000000000000000000000000000000000000000000000600052602260045260246000fd5b6000600282049050600182168061092657607f821691505b602082108103610939576109386108df565b5b50919050565b60008190508160005260206000209050919050565b60006020601f8301049050919050565b600082821b905092915050565b6000600883026109a17fffffffffffffffffffffffffffffffffffffffffffffffffffffffffffffffff82610964565b6109ab8683610964565b95508019841693508086168417925050509392505050565b6000819050919050565b60006109e86109e36109de84610758565b6109c3565b610758565b9050919050565b6000819050919050565b610a02836109cd565b610a16610a0e826109ef565b848454610971565b825550505050565b600090565b610a2b610a1e565b610a368184846109f9565b505050565b5b81811015610a5a57610a4f600082610a23565b600181019050610a3c565b5050565b601f821115610a9f57610a708161093f565b610a7984610954565b81016020851015610a88578190505b610a9c610a9485610954565b830182610a3b565b50505b505050565b600082821c905092915050565b6000610ac260001984600802610aa4565b1980831691505092915050565b6000610adb8383610ab1565b9150826002028217905092915050565b610af4826106b7565b67ffffffffffffffff811115610b0d57610b0c610543565b5b610b17825461090e565b610b22828285610a5e565b600060209050601f831160018114610b555760008415610b43578287015190505b610b4d8582610acf565b865550610bb5565b601f198416610b638661093f565b60005b82811015610b8b57848901518255600182019150602085019450602081019050610b66565b86831015610ba85784890151610ba4601f891682610ab1565b8355505b6001600288020188555050505b505050505050565b600081905092915050565b6000610bd3826106b7565b610bdd8185610bbd565b9350610bed8185602086016106d3565b80840191505092915050565b6000610c058284610bc8565b91508190509291505056fea2646970667358221220a1a730ecbe1c067acb90ade5225b00bd3f4be4ee796e8745ae056f213795ef3d64736f6c63430008130033",
					"opcodes": "PUSH1 0x80 PUSH1 0x40 MSTORE CALLVALUE DUP1 ISZERO PUSH2 0x10 JUMPI PUSH1 0x0 DUP1 REVERT JUMPDEST POP PUSH2 0xC46 DUP1 PUSH2 0x20 PUSH1 0x0 CODECOPY PUSH1 0x0 RETURN INVALID PUSH1 0x80 PUSH1 0x40 MSTORE CALLVALUE DUP1 ISZERO PUSH2 0x10 JUMPI PUSH1 0x0 DUP1 REVERT JUMPDEST POP PUSH1 0x4 CALLDATASIZE LT PUSH2 0x57 JUMPI PUSH1 0x0 CALLDATALOAD PUSH1 0xE0 SHR DUP1 PUSH4 0x131A0680 EQ PUSH2 0x5C JUMPI DUP1 PUSH4 0x2123F489 EQ PUSH2 0x78 JUMPI DUP1 PUSH4 0x2E64CEC1 EQ PUSH2 0xA8 JUMPI DUP1 PUSH4 0x42074765 EQ PUSH2 0xC6 JUMPI DUP1 PUSH4 0xC3B14791 EQ PUSH2 0xE2 JUMPI JUMPDEST PUSH1 0x0 DUP1 REVERT JUMPDEST PUSH2 0x76 PUSH1 0x4 DUP1 CALLDATASIZE SUB DUP2 ADD SWAP1 PUSH2 0x71 SWAP2 SWAP1 PUSH2 0x66E JUMP JUMPDEST PUSH2 0x115 JUMP JUMPDEST STOP JUMPDEST PUSH2 0x92 PUSH1 0x4 DUP1 CALLDATASIZE SUB DUP2 ADD SWAP1 PUSH2 0x8D SWAP2 SWAP1 PUSH2 0x66E JUMP JUMPDEST PUSH2 0x128 JUMP JUMPDEST PUSH1 0x40 MLOAD PUSH2 0x9F SWAP2 SWAP1 PUSH2 0x736 JUMP JUMPDEST PUSH1 0x40 MLOAD DUP1 SWAP2 SUB SWAP1 RETURN JUMPDEST PUSH2 0xB0 PUSH2 0x1DE JUMP JUMPDEST PUSH1 0x40 MLOAD PUSH2 0xBD SWAP2 SWAP1 PUSH2 0x736 JUMP JUMPDEST PUSH1 0x40 MLOAD DUP1 SWAP2 SUB SWAP1 RETURN JUMPDEST PUSH2 0xE0 PUSH1 0x4 DUP1 CALLDATASIZE SUB DUP2 ADD SWAP1 PUSH2 0xDB SWAP2 SWAP1 PUSH2 0x78E JUMP JUMPDEST PUSH2 0x270 JUMP JUMPDEST STOP JUMPDEST PUSH2 0xFC PUSH1 0x4 DUP1 CALLDATASIZE SUB DUP2 ADD SWAP1 PUSH2 0xF7 SWAP2 SWAP1 PUSH2 0x849 JUMP JUMPDEST PUSH2 0x33C JUMP JUMPDEST PUSH1 0x40 MLOAD PUSH2 0x10C SWAP5 SWAP4 SWAP3 SWAP2 SWAP1 PUSH2 0x885 JUMP JUMPDEST PUSH1 0x40 MLOAD DUP1 SWAP2 SUB SWAP1 RETURN JUMPDEST DUP1 PUSH1 0x0 SWAP1 DUP2 PUSH2 0x124 SWAP2 SWAP1 PUSH2 0xAEB JUMP JUMPDEST POP POP JUMP JUMPDEST PUSH1 0x2 DUP2 DUP1 MLOAD PUSH1 0x20 DUP2 ADD DUP3 ADD DUP1 MLOAD DUP5 DUP3 MSTORE PUSH1 0x20 DUP4 ADD PUSH1 0x20 DUP6 ADD KECCAK256 DUP2 DUP4 MSTORE DUP1 SWAP6 POP POP POP POP POP POP PUSH1 0x0 SWAP2 POP SWAP1 POP DUP1 SLOAD PUSH2 0x15D SWAP1 PUSH2 0x90E JUMP JUMPDEST DUP1 PUSH1 0x1F ADD PUSH1 0x20 DUP1 SWAP2 DIV MUL PUSH1 0x20 ADD PUSH1 0x40 MLOAD SWAP1 DUP2 ADD PUSH1 0x40 MSTORE DUP1 SWAP3 SWAP2 SWAP1 DUP2 DUP2 MSTORE PUSH1 0x20 ADD DUP3 DUP1 SLOAD PUSH2 0x189 SWAP1 PUSH2 0x90E JUMP JUMPDEST DUP1 ISZERO PUSH2 0x1D6 JUMPI DUP1 PUSH1 0x1F LT PUSH2 0x1AB JUMPI PUSH2 0x100 DUP1 DUP4 SLOAD DIV MUL DUP4 MSTORE SWAP2 PUSH1 0x20 ADD SWAP2 PUSH2 0x1D6 JUMP JUMPDEST DUP3 ADD SWAP2 SWAP1 PUSH1 0x0 MSTORE PUSH1 0x20 PUSH1 0x0 KECCAK256 SWAP1 JUMPDEST DUP2 SLOAD DUP2 MSTORE SWAP1 PUSH1 0x1 ADD SWAP1 PUSH1 0x20 ADD DUP1 DUP4 GT PUSH2 0x1B9 JUMPI DUP3 SWAP1 SUB PUSH1 0x1F AND DUP3 ADD SWAP2 JUMPDEST POP POP POP POP POP DUP2 JUMP JUMPDEST PUSH1 0x60 PUSH1 0x0 DUP1 SLOAD PUSH2 0x1ED SWAP1 PUSH2 0x90E JUMP JUMPDEST DUP1 PUSH1 0x1F ADD PUSH1 0x20 DUP1 SWAP2 DIV MUL PUSH1 0x20 ADD PUSH1 0x40 MLOAD SWAP1 DUP2 ADD PUSH1 0x40 MSTORE DUP1 SWAP3 SWAP2 SWAP1 DUP2 DUP2 MSTORE PUSH1 0x20 ADD DUP3 DUP1 SLOAD PUSH2 0x219 SWAP1 PUSH2 0x90E JUMP JUMPDEST DUP1 ISZERO PUSH2 0x266 JUMPI DUP1 PUSH1 0x1F LT PUSH2 0x23B JUMPI PUSH2 0x100 DUP1 DUP4 SLOAD DIV MUL DUP4 MSTORE SWAP2 PUSH1 0x20 ADD SWAP2 PUSH2 0x266 JUMP JUMPDEST DUP3 ADD SWAP2 SWAP1 PUSH1 0x0 MSTORE PUSH1 0x20 PUSH1 0x0 KECCAK256 SWAP1 JUMPDEST DUP2 SLOAD DUP2 MSTORE SWAP1 PUSH1 0x1 ADD SWAP1 PUSH1 0x20 ADD DUP1 DUP4 GT PUSH2 0x249 JUMPI DUP3 SWAP1 SUB PUSH1 0x1F AND DUP3 ADD SWAP2 JUMPDEST POP POP POP POP POP SWAP1 POP SWAP1 JUMP JUMPDEST PUSH1 0x1 PUSH1 0x40 MLOAD DUP1 PUSH1 0x80 ADD PUSH1 0x40 MSTORE DUP1 DUP6 DUP2 MSTORE PUSH1 0x20 ADD DUP7 DUP2 MSTORE PUSH1 0x20 ADD DUP5 DUP2 MSTORE PUSH1 0x20 ADD DUP4 DUP2 MSTORE POP SWAP1 DUP1 PUSH1 0x1 DUP2 SLOAD ADD DUP1 DUP3 SSTORE DUP1 SWAP2 POP POP PUSH1 0x1 SWAP1 SUB SWAP1 PUSH1 0x0 MSTORE PUSH1 0x20 PUSH1 0x0 KECCAK256 SWAP1 PUSH1 0x4 MUL ADD PUSH1 0x0 SWAP1 SWAP2 SWAP1 SWAP2 SWAP1 SWAP2 POP PUSH1 0x0 DUP3 ADD MLOAD DUP2 PUSH1 0x0 ADD SWAP1 DUP2 PUSH2 0x2D1 SWAP2 SWAP1 PUSH2 0xAEB JUMP JUMPDEST POP PUSH1 0x20 DUP3 ADD MLOAD DUP2 PUSH1 0x1 ADD SWAP1 DUP2 PUSH2 0x2E7 SWAP2 SWAP1 PUSH2 0xAEB JUMP JUMPDEST POP PUSH1 0x40 DUP3 ADD MLOAD DUP2 PUSH1 0x2 ADD SSTORE PUSH1 0x60 DUP3 ADD MLOAD DUP2 PUSH1 0x3 ADD SWAP1 DUP2 PUSH2 0x307 SWAP2 SWAP1 PUSH2 0xAEB JUMP JUMPDEST POP POP POP DUP3 PUSH1 0x2 DUP6 PUSH1 0x40 MLOAD PUSH2 0x31B SWAP2 SWAP1 PUSH2 0xBF9 JUMP JUMPDEST SWAP1 DUP2 MSTORE PUSH1 0x20 ADD PUSH1 0x40 MLOAD DUP1 SWAP2 SUB SWAP1 KECCAK256 SWAP1 DUP2 PUSH2 0x335 SWAP2 SWAP1 PUSH2 0xAEB JUMP JUMPDEST POP POP POP POP POP JUMP JUMPDEST PUSH1 0x1 DUP2 DUP2 SLOAD DUP2 LT PUSH2 0x34C JUMPI PUSH1 0x0 DUP1 REVERT JUMPDEST SWAP1 PUSH1 0x0 MSTORE PUSH1 0x20 PUSH1 0x0 KECCAK256 SWAP1 PUSH1 0x4 MUL ADD PUSH1 0x0 SWAP2 POP SWAP1 POP DUP1 PUSH1 0x0 ADD DUP1 SLOAD PUSH2 0x36F SWAP1 PUSH2 0x90E JUMP JUMPDEST DUP1 PUSH1 0x1F ADD PUSH1 0x20 DUP1 SWAP2 DIV MUL PUSH1 0x20 ADD PUSH1 0x40 MLOAD SWAP1 DUP2 ADD PUSH1 0x40 MSTORE DUP1 SWAP3 SWAP2 SWAP1 DUP2 DUP2 MSTORE PUSH1 0x20 ADD DUP3 DUP1 SLOAD PUSH2 0x39B SWAP1 PUSH2 0x90E JUMP JUMPDEST DUP1 ISZERO PUSH2 0x3E8 JUMPI DUP1 PUSH1 0x1F LT PUSH2 0x3BD JUMPI PUSH2 0x100 DUP1 DUP4 SLOAD DIV MUL DUP4 MSTORE SWAP2 PUSH1 0x20 ADD SWAP2 PUSH2 0x3E8 JUMP JUMPDEST DUP3 ADD SWAP2 SWAP1 PUSH1 0x0 MSTORE PUSH1 0x20 PUSH1 0x0 KECCAK256 SWAP1 JUMPDEST DUP2 SLOAD DUP2 MSTORE SWAP1 PUSH1 0x1 ADD SWAP1 PUSH1 0x20 ADD DUP1 DUP4 GT PUSH2 0x3CB JUMPI DUP3 SWAP1 SUB PUSH1 0x1F AND DUP3 ADD SWAP2 JUMPDEST POP POP POP POP POP SWAP1 DUP1 PUSH1 0x1 ADD DUP1 SLOAD PUSH2 0x3FD SWAP1 PUSH2 0x90E JUMP JUMPDEST DUP1 PUSH1 0x1F ADD PUSH1 0x20 DUP1 SWAP2 DIV MUL PUSH1 0x20 ADD PUSH1 0x40 MLOAD SWAP1 DUP2 ADD PUSH1 0x40 MSTORE DUP1 SWAP3 SWAP2 SWAP1 DUP2 DUP2 MSTORE PUSH1 0x20 ADD DUP3 DUP1 SLOAD PUSH2 0x429 SWAP1 PUSH2 0x90E JUMP JUMPDEST DUP1 ISZERO PUSH2 0x476 JUMPI DUP1 PUSH1 0x1F LT PUSH2 0x44B JUMPI PUSH2 0x100 DUP1 DUP4 SLOAD DIV MUL DUP4 MSTORE SWAP2 PUSH1 0x20 ADD SWAP2 PUSH2 0x476 JUMP JUMPDEST DUP3 ADD SWAP2 SWAP1 PUSH1 0x0 MSTORE PUSH1 0x20 PUSH1 0x0 KECCAK256 SWAP1 JUMPDEST DUP2 SLOAD DUP2 MSTORE SWAP1 PUSH1 0x1 ADD SWAP1 PUSH1 0x20 ADD DUP1 DUP4 GT PUSH2 0x459 JUMPI DUP3 SWAP1 SUB PUSH1 0x1F AND DUP3 ADD SWAP2 JUMPDEST POP POP POP POP POP SWAP1 DUP1 PUSH1 0x2 ADD SLOAD SWAP1 DUP1 PUSH1 0x3 ADD DUP1 SLOAD PUSH2 0x491 SWAP1 PUSH2 0x90E JUMP JUMPDEST DUP1 PUSH1 0x1F ADD PUSH1 0x20 DUP1 SWAP2 DIV MUL PUSH1 0x20 ADD PUSH1 0x40 MLOAD SWAP1 DUP2 ADD PUSH1 0x40 MSTORE DUP1 SWAP3 SWAP2 SWAP1 DUP2 DUP2 MSTORE PUSH1 0x20 ADD DUP3 DUP1 SLOAD PUSH2 0x4BD SWAP1 PUSH2 0x90E JUMP JUMPDEST DUP1 ISZERO PUSH2 0x50A JUMPI DUP1 PUSH1 0x1F LT PUSH2 0x4DF JUMPI PUSH2 0x100 DUP1 DUP4 SLOAD DIV MUL DUP4 MSTORE SWAP2 PUSH1 0x20 ADD SWAP2 PUSH2 0x50A JUMP JUMPDEST DUP3 ADD SWAP2 SWAP1 PUSH1 0x0 MSTORE PUSH1 0x20 PUSH1 0x0 KECCAK256 SWAP1 JUMPDEST DUP2 SLOAD DUP2 MSTORE SWAP1 PUSH1 0x1 ADD SWAP1 PUSH1 0x20 ADD DUP1 DUP4 GT PUSH2 0x4ED JUMPI DUP3 SWAP1 SUB PUSH1 0x1F AND DUP3 ADD SWAP2 JUMPDEST POP POP POP POP POP SWAP1 POP DUP5 JUMP JUMPDEST PUSH1 0x0 PUSH1 0x40 MLOAD SWAP1 POP SWAP1 JUMP JUMPDEST PUSH1 0x0 DUP1 REVERT JUMPDEST PUSH1 0x0 DUP1 REVERT JUMPDEST PUSH1 0x0 DUP1 REVERT JUMPDEST PUSH1 0x0 DUP1 REVERT JUMPDEST PUSH1 0x0 PUSH1 0x1F NOT PUSH1 0x1F DUP4 ADD AND SWAP1 POP SWAP2 SWAP1 POP JUMP JUMPDEST PUSH32 0x4E487B7100000000000000000000000000000000000000000000000000000000 PUSH1 0x0 MSTORE PUSH1 0x41 PUSH1 0x4 MSTORE PUSH1 0x24 PUSH1 0x0 REVERT JUMPDEST PUSH2 0x57B DUP3 PUSH2 0x532 JUMP JUMPDEST DUP2 ADD DUP2 DUP2 LT PUSH8 0xFFFFFFFFFFFFFFFF DUP3 GT OR ISZERO PUSH2 0x59A JUMPI PUSH2 0x599 PUSH2 0x543 JUMP JUMPDEST JUMPDEST DUP1 PUSH1 0x40 MSTORE POP POP POP JUMP JUMPDEST PUSH1 0x0 PUSH2 0x5AD PUSH2 0x514 JUMP JUMPDEST SWAP1 POP PUSH2 0x5B9 DUP3 DUP3 PUSH2 0x572 JUMP JUMPDEST SWAP2 SWAP1 POP JUMP JUMPDEST PUSH1 0x0 PUSH8 0xFFFFFFFFFFFFFFFF DUP3 GT ISZERO PUSH2 0x5D9 JUMPI PUSH2 0x5D8 PUSH2 0x543 JUMP JUMPDEST JUMPDEST PUSH2 0x5E2 DUP3 PUSH2 0x532 JUMP JUMPDEST SWAP1 POP PUSH1 0x20 DUP2 ADD SWAP1 POP SWAP2 SWAP1 POP JUMP JUMPDEST DUP3 DUP2 DUP4 CALLDATACOPY PUSH1 0x0 DUP4 DUP4 ADD MSTORE POP POP POP JUMP JUMPDEST PUSH1 0x0 PUSH2 0x611 PUSH2 0x60C DUP5 PUSH2 0x5BE JUMP JUMPDEST PUSH2 0x5A3 JUMP JUMPDEST SWAP1 POP DUP3 DUP2 MSTORE PUSH1 0x20 DUP2 ADD DUP5 DUP5 DUP5 ADD GT ISZERO PUSH2 0x62D JUMPI PUSH2 0x62C PUSH2 0x52D JUMP JUMPDEST JUMPDEST PUSH2 0x638 DUP5 DUP3 DUP6 PUSH2 0x5EF JUMP JUMPDEST POP SWAP4 SWAP3 POP POP POP JUMP JUMPDEST PUSH1 0x0 DUP3 PUSH1 0x1F DUP4 ADD SLT PUSH2 0x655 JUMPI PUSH2 0x654 PUSH2 0x528 JUMP JUMPDEST JUMPDEST DUP2 CALLDATALOAD PUSH2 0x665 DUP5 DUP3 PUSH1 0x20 DUP7 ADD PUSH2 0x5FE JUMP JUMPDEST SWAP2 POP POP SWAP3 SWAP2 POP POP JUMP JUMPDEST PUSH1 0x0 PUSH1 0x20 DUP3 DUP5 SUB SLT ISZERO PUSH2 0x684 JUMPI PUSH2 0x683 PUSH2 0x51E JUMP JUMPDEST JUMPDEST PUSH1 0x0 DUP3 ADD CALLDATALOAD PUSH8 0xFFFFFFFFFFFFFFFF DUP2 GT ISZERO PUSH2 0x6A2 JUMPI PUSH2 0x6A1 PUSH2 0x523 JUMP JUMPDEST JUMPDEST PUSH2 0x6AE DUP5 DUP3 DUP6 ADD PUSH2 0x640 JUMP JUMPDEST SWAP2 POP POP SWAP3 SWAP2 POP POP JUMP JUMPDEST PUSH1 0x0 DUP2 MLOAD SWAP1 POP SWAP2 SWAP1 POP JUMP JUMPDEST PUSH1 0x0 DUP3 DUP3 MSTORE PUSH1 0x20 DUP3 ADD SWAP1 POP SWAP3 SWAP2 POP POP JUMP JUMPDEST PUSH1 0x0 JUMPDEST DUP4 DUP2 LT ISZERO PUSH2 0x6F1 JUMPI DUP1 DUP3 ADD MLOAD DUP2 DUP5 ADD MSTORE PUSH1 0x20 DUP2 ADD SWAP1 POP PUSH2 0x6D6 JUMP JUMPDEST PUSH1 0x0 DUP5 DUP5 ADD MSTORE POP POP POP POP JUMP JUMPDEST PUSH1 0x0 PUSH2 0x708 DUP3 PUSH2 0x6B7 JUMP JUMPDEST PUSH2 0x712 DUP2 DUP6 PUSH2 0x6C2 JUMP JUMPDEST SWAP4 POP PUSH2 0x722 DUP2 DUP6 PUSH1 0x20 DUP7 ADD PUSH2 0x6D3 JUMP JUMPDEST PUSH2 0x72B DUP2 PUSH2 0x532 JUMP JUMPDEST DUP5 ADD SWAP2 POP POP SWAP3 SWAP2 POP POP JUMP JUMPDEST PUSH1 0x0 PUSH1 0x20 DUP3 ADD SWAP1 POP DUP2 DUP2 SUB PUSH1 0x0 DUP4 ADD MSTORE PUSH2 0x750 DUP2 DUP5 PUSH2 0x6FD JUMP JUMPDEST SWAP1 POP SWAP3 SWAP2 POP POP JUMP JUMPDEST PUSH1 0x0 DUP2 SWAP1 POP SWAP2 SWAP1 POP JUMP JUMPDEST PUSH2 0x76B DUP2 PUSH2 0x758 JUMP JUMPDEST DUP2 EQ PUSH2 0x776 JUMPI PUSH1 0x0 DUP1 REVERT JUMPDEST POP JUMP JUMPDEST PUSH1 0x0 DUP2 CALLDATALOAD SWAP1 POP PUSH2 0x788 DUP2 PUSH2 0x762 JUMP JUMPDEST SWAP3 SWAP2 POP POP JUMP JUMPDEST PUSH1 0x0 DUP1 PUSH1 0x0 DUP1 PUSH1 0x80 DUP6 DUP8 SUB SLT ISZERO PUSH2 0x7A8 JUMPI PUSH2 0x7A7 PUSH2 0x51E JUMP JUMPDEST JUMPDEST PUSH1 0x0 DUP6 ADD CALLDATALOAD PUSH8 0xFFFFFFFFFFFFFFFF DUP2 GT ISZERO PUSH2 0x7C6 JUMPI PUSH2 0x7C5 PUSH2 0x523 JUMP JUMPDEST JUMPDEST PUSH2 0x7D2 DUP8 DUP3 DUP9 ADD PUSH2 0x640 JUMP JUMPDEST SWAP5 POP POP PUSH1 0x20 DUP6 ADD CALLDATALOAD PUSH8 0xFFFFFFFFFFFFFFFF DUP2 GT ISZERO PUSH2 0x7F3 JUMPI PUSH2 0x7F2 PUSH2 0x523 JUMP JUMPDEST JUMPDEST PUSH2 0x7FF DUP8 DUP3 DUP9 ADD PUSH2 0x640 JUMP JUMPDEST SWAP4 POP POP PUSH1 0x40 PUSH2 0x810 DUP8 DUP3 DUP9 ADD PUSH2 0x779 JUMP JUMPDEST SWAP3 POP POP PUSH1 0x60 DUP6 ADD CALLDATALOAD PUSH8 0xFFFFFFFFFFFFFFFF DUP2 GT ISZERO PUSH2 0x831 JUMPI PUSH2 0x830 PUSH2 0x523 JUMP JUMPDEST JUMPDEST PUSH2 0x83D DUP8 DUP3 DUP9 ADD PUSH2 0x640 JUMP JUMPDEST SWAP2 POP POP SWAP3 SWAP6 SWAP2 SWAP5 POP SWAP3 POP JUMP JUMPDEST PUSH1 0x0 PUSH1 0x20 DUP3 DUP5 SUB SLT ISZERO PUSH2 0x85F JUMPI PUSH2 0x85E PUSH2 0x51E JUMP JUMPDEST JUMPDEST PUSH1 0x0 PUSH2 0x86D DUP5 DUP3 DUP6 ADD PUSH2 0x779 JUMP JUMPDEST SWAP2 POP POP SWAP3 SWAP2 POP POP JUMP JUMPDEST PUSH2 0x87F DUP2 PUSH2 0x758 JUMP JUMPDEST DUP3 MSTORE POP POP JUMP JUMPDEST PUSH1 0x0 PUSH1 0x80 DUP3 ADD SWAP1 POP DUP2 DUP2 SUB PUSH1 0x0 DUP4 ADD MSTORE PUSH2 0x89F DUP2 DUP8 PUSH2 0x6FD JUMP JUMPDEST SWAP1 POP DUP2 DUP2 SUB PUSH1 0x20 DUP4 ADD MSTORE PUSH2 0x8B3 DUP2 DUP7 PUSH2 0x6FD JUMP JUMPDEST SWAP1 POP PUSH2 0x8C2 PUSH1 0x40 DUP4 ADD DUP6 PUSH2 0x876 JUMP JUMPDEST DUP2 DUP2 SUB PUSH1 0x60 DUP4 ADD MSTORE PUSH2 0x8D4 DUP2 DUP5 PUSH2 0x6FD JUMP JUMPDEST SWAP1 POP SWAP6 SWAP5 POP POP POP POP POP JUMP JUMPDEST PUSH32 0x4E487B7100000000000000000000000000000000000000000000000000000000 PUSH1 0x0 MSTORE PUSH1 0x22 PUSH1 0x4 MSTORE PUSH1 0x24 PUSH1 0x0 REVERT JUMPDEST PUSH1 0x0 PUSH1 0x2 DUP3 DIV SWAP1 POP PUSH1 0x1 DUP3 AND DUP1 PUSH2 0x926 JUMPI PUSH1 0x7F DUP3 AND SWAP2 POP JUMPDEST PUSH1 0x20 DUP3 LT DUP2 SUB PUSH2 0x939 JUMPI PUSH2 0x938 PUSH2 0x8DF JUMP JUMPDEST JUMPDEST POP SWAP2 SWAP1 POP JUMP JUMPDEST PUSH1 0x0 DUP2 SWAP1 POP DUP2 PUSH1 0x0 MSTORE PUSH1 0x20 PUSH1 0x0 KECCAK256 SWAP1 POP SWAP2 SWAP1 POP JUMP JUMPDEST PUSH1 0x0 PUSH1 0x20 PUSH1 0x1F DUP4 ADD DIV SWAP1 POP SWAP2 SWAP1 POP JUMP JUMPDEST PUSH1 0x0 DUP3 DUP3 SHL SWAP1 POP SWAP3 SWAP2 POP POP JUMP JUMPDEST PUSH1 0x0 PUSH1 0x8 DUP4 MUL PUSH2 0x9A1 PUSH32 0xFFFFFFFFFFFFFFFFFFFFFFFFFFFFFFFFFFFFFFFFFFFFFFFFFFFFFFFFFFFFFFFF DUP3 PUSH2 0x964 JUMP JUMPDEST PUSH2 0x9AB DUP7 DUP4 PUSH2 0x964 JUMP JUMPDEST SWAP6 POP DUP1 NOT DUP5 AND SWAP4 POP DUP1 DUP7 AND DUP5 OR SWAP3 POP POP POP SWAP4 SWAP3 POP POP POP JUMP JUMPDEST PUSH1 0x0 DUP2 SWAP1 POP SWAP2 SWAP1 POP JUMP JUMPDEST PUSH1 0x0 PUSH2 0x9E8 PUSH2 0x9E3 PUSH2 0x9DE DUP5 PUSH2 0x758 JUMP JUMPDEST PUSH2 0x9C3 JUMP JUMPDEST PUSH2 0x758 JUMP JUMPDEST SWAP1 POP SWAP2 SWAP1 POP JUMP JUMPDEST PUSH1 0x0 DUP2 SWAP1 POP SWAP2 SWAP1 POP JUMP JUMPDEST PUSH2 0xA02 DUP4 PUSH2 0x9CD JUMP JUMPDEST PUSH2 0xA16 PUSH2 0xA0E DUP3 PUSH2 0x9EF JUMP JUMPDEST DUP5 DUP5 SLOAD PUSH2 0x971 JUMP JUMPDEST DUP3 SSTORE POP POP POP POP JUMP JUMPDEST PUSH1 0x0 SWAP1 JUMP JUMPDEST PUSH2 0xA2B PUSH2 0xA1E JUMP JUMPDEST PUSH2 0xA36 DUP2 DUP5 DUP5 PUSH2 0x9F9 JUMP JUMPDEST POP POP POP JUMP JUMPDEST JUMPDEST DUP2 DUP2 LT ISZERO PUSH2 0xA5A JUMPI PUSH2 0xA4F PUSH1 0x0 DUP3 PUSH2 0xA23 JUMP JUMPDEST PUSH1 0x1 DUP2 ADD SWAP1 POP PUSH2 0xA3C JUMP JUMPDEST POP POP JUMP JUMPDEST PUSH1 0x1F DUP3 GT ISZERO PUSH2 0xA9F JUMPI PUSH2 0xA70 DUP2 PUSH2 0x93F JUMP JUMPDEST PUSH2 0xA79 DUP5 PUSH2 0x954 JUMP JUMPDEST DUP2 ADD PUSH1 0x20 DUP6 LT ISZERO PUSH2 0xA88 JUMPI DUP2 SWAP1 POP JUMPDEST PUSH2 0xA9C PUSH2 0xA94 DUP6 PUSH2 0x954 JUMP JUMPDEST DUP4 ADD DUP3 PUSH2 0xA3B JUMP JUMPDEST POP POP JUMPDEST POP POP POP JUMP JUMPDEST PUSH1 0x0 DUP3 DUP3 SHR SWAP1 POP SWAP3 SWAP2 POP POP JUMP JUMPDEST PUSH1 0x0 PUSH2 0xAC2 PUSH1 0x0 NOT DUP5 PUSH1 0x8 MUL PUSH2 0xAA4 JUMP JUMPDEST NOT DUP1 DUP4 AND SWAP2 POP POP SWAP3 SWAP2 POP POP JUMP JUMPDEST PUSH1 0x0 PUSH2 0xADB DUP4 DUP4 PUSH2 0xAB1 JUMP JUMPDEST SWAP2 POP DUP3 PUSH1 0x2 MUL DUP3 OR SWAP1 POP SWAP3 SWAP2 POP POP JUMP JUMPDEST PUSH2 0xAF4 DUP3 PUSH2 0x6B7 JUMP JUMPDEST PUSH8 0xFFFFFFFFFFFFFFFF DUP2 GT ISZERO PUSH2 0xB0D JUMPI PUSH2 0xB0C PUSH2 0x543 JUMP JUMPDEST JUMPDEST PUSH2 0xB17 DUP3 SLOAD PUSH2 0x90E JUMP JUMPDEST PUSH2 0xB22 DUP3 DUP3 DUP6 PUSH2 0xA5E JUMP JUMPDEST PUSH1 0x0 PUSH1 0x20 SWAP1 POP PUSH1 0x1F DUP4 GT PUSH1 0x1 DUP2 EQ PUSH2 0xB55 JUMPI PUSH1 0x0 DUP5 ISZERO PUSH2 0xB43 JUMPI DUP3 DUP8 ADD MLOAD SWAP1 POP JUMPDEST PUSH2 0xB4D DUP6 DUP3 PUSH2 0xACF JUMP JUMPDEST DUP7 SSTORE POP PUSH2 0xBB5 JUMP JUMPDEST PUSH1 0x1F NOT DUP5 AND PUSH2 0xB63 DUP7 PUSH2 0x93F JUMP JUMPDEST PUSH1 0x0 JUMPDEST DUP3 DUP2 LT ISZERO PUSH2 0xB8B JUMPI DUP5 DUP10 ADD MLOAD DUP3 SSTORE PUSH1 0x1 DUP3 ADD SWAP2 POP PUSH1 0x20 DUP6 ADD SWAP5 POP PUSH1 0x20 DUP2 ADD SWAP1 POP PUSH2 0xB66 JUMP JUMPDEST DUP7 DUP4 LT ISZERO PUSH2 0xBA8 JUMPI DUP5 DUP10 ADD MLOAD PUSH2 0xBA4 PUSH1 0x1F DUP10 AND DUP3 PUSH2 0xAB1 JUMP JUMPDEST DUP4 SSTORE POP JUMPDEST PUSH1 0x1 PUSH1 0x2 DUP9 MUL ADD DUP9 SSTORE POP POP POP JUMPDEST POP POP POP POP POP POP JUMP JUMPDEST PUSH1 0x0 DUP2 SWAP1 POP SWAP3 SWAP2 POP POP JUMP JUMPDEST PUSH1 0x0 PUSH2 0xBD3 DUP3 PUSH2 0x6B7 JUMP JUMPDEST PUSH2 0xBDD DUP2 DUP6 PUSH2 0xBBD JUMP JUMPDEST SWAP4 POP PUSH2 0xBED DUP2 DUP6 PUSH1 0x20 DUP7 ADD PUSH2 0x6D3 JUMP JUMPDEST DUP1 DUP5 ADD SWAP2 POP POP SWAP3 SWAP2 POP POP JUMP JUMPDEST PUSH1 0x0 PUSH2 0xC05 DUP3 DUP5 PUSH2 0xBC8 JUMP JUMPDEST SWAP2 POP DUP2 SWAP1 POP SWAP3 SWAP2 POP POP JUMP INVALID LOG2 PUSH5 0x6970667358 0x22 SLT KECCAK256 LOG1 0xA7 ADDRESS 0xEC 0xBE SHR MOD PUSH27 0xCB90ADE5225B00BD3F4BE4EE796E8745AE056F213795EF3D64736F PUSH13 0x63430008130033000000000000 "
				},
				"gasEstimates": {
					"creation": {
						"codeDepositCost": "628400",
						"executionCost": "664",
						"totalCost": "629064"
					},
					"external": {
						"addPatient(string,string,uint256,string)": "infinite",
						"listofPatients(uint256)": "infinite",
						"nameToPatientList(string)": "infinite",
						"retrieve()": "infinite",
						"store(string)": "infinite"
					}
				},
				"methodIdentifiers": {
					"addPatient(string,string,uint256,string)": "42074765",
					"listofPatients(uint256)": "c3b14791",
					"nameToPatientList(string)": "2123f489",
					"retrieve()": "2e64cec1",
					"store(string)": "131a0680"
				}
			},
			"storageLayout": {
				"storage": [
					{
						"astId": 3,
						"contract": "MedTracker.sol:MedTracker",
						"label": "patientPrescribed",
						"offset": 0,
						"slot": "0",
						"type": "t_string_storage"
					},
					{
						"astId": 16,
						"contract": "MedTracker.sol:MedTracker",
						"label": "listofPatients",
						"offset": 0,
						"slot": "1",
						"type": "t_array(t_struct(Patient)12_storage)dyn_storage"
					},
					{
						"astId": 20,
						"contract": "MedTracker.sol:MedTracker",
						"label": "nameToPatientList",
						"offset": 0,
						"slot": "2",
						"type": "t_mapping(t_string_memory_ptr,t_string_storage)"
					}
				],
				"types": {
					"t_array(t_struct(Patient)12_storage)dyn_storage": {
						"base": "t_struct(Patient)12_storage",
						"encoding": "dynamic_array",
						"label": "struct MedTracker.Patient[]",
						"numberOfBytes": "32"
					},
					"t_mapping(t_string_memory_ptr,t_string_storage)": {
						"encoding": "mapping",
						"key": "t_string_memory_ptr",
						"label": "mapping(string => string)",
						"numberOfBytes": "32",
						"value": "t_string_storage"
					},
					"t_string_memory_ptr": {
						"encoding": "bytes",
						"label": "string",
						"numberOfBytes": "32"
					},
					"t_string_storage": {
						"encoding": "bytes",
						"label": "string",
						"numberOfBytes": "32"
					},
					"t_struct(Patient)12_storage": {
						"encoding": "inplace",
						"label": "struct MedTracker.Patient",
						"members": [
							{
								"astId": 5,
								"contract": "MedTracker.sol:MedTracker",
								"label": "Prescription",
								"offset": 0,
								"slot": "0",
								"type": "t_string_storage"
							},
							{
								"astId": 7,
								"contract": "MedTracker.sol:MedTracker",
								"label": "Name",
								"offset": 0,
								"slot": "1",
								"type": "t_string_storage"
							},
							{
								"astId": 9,
								"contract": "MedTracker.sol:MedTracker",
								"label": "Amount",
								"offset": 0,
								"slot": "2",
								"type": "t_uint256"
							},
							{
								"astId": 11,
								"contract": "MedTracker.sol:MedTracker",
								"label": "PrescribedBy",
								"offset": 0,
								"slot": "3",
								"type": "t_string_storage"
							}
						],
						"numberOfBytes": "128"
					},
					"t_uint256": {
						"encoding": "inplace",
						"label": "uint256",
						"numberOfBytes": "32"
					}
				}
			},
			"userdoc": {
				"kind": "user",
				"methods": {},
				"version": 1
			}
		}
	}
}